:020000040000FA
:1000000002187F1219F312001E121BC3121BBC121E
:100010001BC7121B57121BB2121BCF021BCB75A49E
:1000200010222202198902036EE86480F8E933E89D
:100030003360110460F0ED33EC337009E8FCE9FD46
:10004000EAFEEBFF220460DED3EB9FEA9EE99DE827
:10005000C2E78CF0C2F795F0400CE8CCF8E9CDF996
:10006000EACEFAEBCFFB12033985D0F058047003C7
:1000700020D5B3E80470075002B2D502037892D5B8
:10008000EC0460F7E4CCC0E0C398F8603B941860DF
:1000900008400DD0E0FB020350E4FBFAC9FC8028C5
:1000A000E830E406E4C9FBE4CAFCE830E305E4C94F
:1000B000CACBFCE854076010F8C3E913F9EA13FA55
:1000C000EB13FBEC13FCD8F130F52FC3E49CFCEFF1
:1000D0009BFFEE9AFEED99FDD0E0FBEF4E4D4C708C
:1000E0001222DB03020375EC2CFCEF33FFEE33FE30
:1000F000ED33FDED30E7EB020350EF2BFFEE3AFE60
:10010000ED39FDD0E0FB50130BBB0003020378ED8B
:1001100013FDEE13FEEF13FFEC13FC020350EC4D46
:100120006011E8497017ED33EC3304600DE4FCFF17
:10013000FEFD22E933E8330470F802036E1203393E
:1001400058046009E4CC2481500628500902037841
:10015000284003020375C0E0EB4A7044B98006D022
:10016000E0FB020364EF4E701CBD8008EBFFEAFE6B
:10017000E9FD80EBE98DF0A4FEE5F0020207E9CD90
:10018000F9EAFEEBFFEF89F0A4FCE5F0CE89F0A4DC
:100190002EFFE435F0CD89F0A42DFEE435F0806724
:1001A000EF4E7005BD80D780C3EF8BF0A4ACF0EEAE
:1001B0008BF0A42CFCE435F0F8EF8AF0A42CE5F0E9
:1001C00038FCE433CB8DF0A42CFCE5F03BF8EE8A50
:1001D000F0A42CFCE5F038F8E433CF89F0A42CFC33
:1001E000E5F038CF3400CE89F0A42FFFE5F03EFED5
:1001F000E433C98DF0A42EFEE5F039CD8AF0A42FAA
:10020000FFE5F03EFEE43DFD33D0E0FB50070BBBC5
:10021000000F020378EC2CFCEF33FFEE33FEED33DE
:10022000FD020350020378EC5D046005E859047098
:100230000302036E120339580460F6EC4860F2ECD6
:100240007004FDFEFF22C860DB2481C85009C398FA
:10025000600250060203759850CAF582E9294B4A9C
:100260007005AB8202036475F0007C1A7880C3EFDE
:100270009BEE9AED99400DC3EF9BFFEE9AFEED9930
:10028000FDE842F0DC23ACF0D0E0FFD0E0FED0E0AF
:10029000FDAB8220E7101BEB60BAEC2CFCEF33FFC8
:1002A000EE33FEED33FD020350E803F830E705C0FE
:1002B000F075F000EF2FFFEE33FEED33FD40B83068
:1002C000E7C280AA75F020800E75F010800575F0E9
:1002D000087D007E007F003392D530D50312084898
:1002E000EC334010EF33FFEE33FEED33FDEC33FC27
:1002F000D5F0ED22E5F0247EA2D513CC92E7CDCE49
:10030000FF22EDD2E7CD33EC3392D524814006E4D1
:10031000FFFEFDFC22FCE4CFCECDCC24E0501174D6
:10032000FF80EDC3CC13CCCD13CDCE13CECF13CFE6
:100330000470F030D5DE020848E9D2E7C933E8336B
:10034000F892D5EDD2E7CD33EC33FC5002B2D52292
:10035000EC30E7100FBF000C0EBE00080DBD00040E
:100360000BEB6014A2D5EB13FCED92E7FD2274FFBA
:10037000FCFDFEFF22E480F8A2D574FF13FC7D8013
:10038000E480EFED33EC33601004700FED547F70B8
:1003900005740292E0227404220422E42274F8CC50
:1003A0006480CCC86480C8F58204604FC3EB9FF5BD
:1003B000F0EA9E42F0E99D42F0E89C45F0603C5036
:1003C0001DE5825FFFE582D313CB5BCBF42B558217
:1003D000FB50280ABA002409B9002008801DE582D4
:1003E0005BFBE582D313CF5FCFF4C3132F5582FF9E
:1003F00050090EBE00050DBD00010CC3EB9FF5F0CA
:10040000EA9E42F0E99D42F0E89C45F06007CC4846
:1004100020E701B3EC22ED33EC33600A047003BD36
:100420008004ECB2E7FC22F920E72824F950037994
:1004300007E4F42402FB18DBFDE624FB5014E9601A
:100440000DE4F618E604F6B40A08E4F6D9F57401EA
:10045000F60A22C2D522ED33EC3392D5FA602AB4E3
:10046000FF33EDC2E77BFF60067A04797BE4227AF2
:1004700004798420D5047A04797F224E614E002BC2
:10048000494E46002D494E4600E47A08F608DAFC4B
:100490007B00740722E8C0E0ECC0E0EDC0E0EEC0F5
:1004A000E0EFC0E0EA75F010A4CAABF075F04DA41F
:1004B0002BFBE435F0FCEA2410FAEB34C5FBEC34FA
:1004C000D9FCEDC2E7FF75F056A4F42411C5F0F491
:1004D00034C58FF0A42AE5F03BE43CF620E7141283
:1004E0000589D0E0FFD0E0FED0E0FDD0E0FC1202B4
:1004F000278014F404120589D0E0FFD0E0FED0E09C
:10050000FDD0E0FC12011ED0E0F8E6FAEDD2E7CD16
:1005100033EC332482FBE4C3CF33CFCE33CECD33A1
:10052000CD33DBF37B0775F00A846004F6081B0A01
:10053000E5F0F6088FF0740AA4FFACF08EF0740AB0
:10054000A42CFEACF050010C8DF0740AA42CFDE438
:1005500035F0F608DBDE7407223F80000041200002
:100560000042C80000447A0000461C400047C350C7
:1005700000497424004B1896804CBEBC205A0E1BB8
:10058000CA6753C21C749DC5AEFB60065407601C4D
:1005900023231205B7EB543860091205A31205B2E4
:1005A00012011EECF8EDF9EEFAEFCB22EB1205B2D8
:1005B00080F1543803241C900559FE93FC0EEE93F1
:1005C000FD0EEE930ECE93FF22C0E0EFFBEEFAEDB0
:1005D000F9ECF812011ED0E0F5F0EFFBEEFAEDF9C0
:1005E000ECF8120887A3A3A3A3E8C0E0E9C0E0EAFF
:1005F000C0E0EBC0E0C0F012011E120897A3A3A355
:10060000A312002DD0F0D0E0FBD0E0FAD0E0F9D07A
:10061000E0F8D5F0D422E709F608DFFA8046E709CA
:10062000F208DFFA803E88828C83E709F0A3DFFAC4
:100630008032E309F608DFFA8078E309F208DFFA8E
:10064000807088828C83E309F0A3DFFA806489825A
:100650008A83E0A3F608DFFA805889828A83E0A3C0
:10066000F208DFFA804C80D280FA80C680D480699C
:1006700080F28033801080A680EA809A80A880DA99
:1006800080E280CA803389828A83ECFAE493A3C82B
:10069000C582C8CCC583CCF0A3C8C582C8CCC583ED
:1006A000CCDFE9DEE7800D89828A83E493A3F60834
:1006B000DFF9ECFAA9F0EDFB2289828A83ECFAE0FB
:1006C000A3C8C582C8CCC583CCF0A3C8C582C8CC9A
:1006D000C583CCDFEADEE880DB89828A83E493A3EA
:1006E000F208DFF980CC88F0EF60010E4E60C3881D
:1006F000F0ED2402B4040050B9F582EB2402B404F6
:100700000050AF232345822390066673BB01068900
:10071000828A83E0225002E722BBFE02E322898222
:100720008A83E49322BB010CE58229F582E5833AB2
:10073000F583E0225006E92582F8E622BBFE06E9B1
:100740002582F8E222E58229F582E5833AF583E401
:100750009322BB010689828A83F0225002F722BBD2
:10076000FE01F322C5F0F8A3E028F0C5F0F8E58219
:10077000158270021583E038F02275F0087582004A
:10078000EF2FFFEE33FECD33CDCC33CCC58233C556
:10079000829BED9AEC99E58298400CF582EE9BFEE7
:1007A000ED9AFDEC99FC0FD5F0D6E4CEFBE4CDFA42
:1007B000E4CCF9A88222B800C1B90059BA002DECE6
:1007C0008BF084CFCECDFCE5F0CBF97818EF2FFF7E
:1007D000EE33FEED33FDEC33FCEB33FB10D7039926
:1007E0004004EB99FB0FD8E5E4F9FA227818EF2FD3
:1007F000FFEE33FEED33FDEC33FCC933C910D705F2
:100800009BE99A4007EC9BFCE99AF90FD8E0E4C910
:10081000FAE4CCFB2275F010EF2FFFEE33FEED3340
:10082000FDCC33CCC833C810D7079BEC9AE899406D
:100830000AED9BFDEC9AFCE899F80FD5F0DAE4CDCF
:10084000FBE4CCFAE4C8F922C3E49FFFE49EFEE493
:100850009DFDE49CFC22EB9FF5F0EA9E42F0E99DB1
:1008600042F0E89C45F022BB010789828A83020995
:10087000585005E9F802094CBBFE05E9F802096485
:1008800089828A83020887E493FC740193FD7402D1
:1008900093FE740393FF22E493F8740193F97402B6
:1008A00093FA740393FB22FAE6FB0808E6F925F0B5
:1008B000F618E6CA3AF622BB010789828A83020942
:1008C000795005E9F8020970BBFE05E9F8020982D2
:1008D00089828A8302098BD083D082F8E4937012D4
:1008E000740193700DA3A393F8740193F582888328
:1008F000E4737402936860EFA3A3A380DFE88FF032
:10090000A4CC8BF0A42CFCE98EF0A42CFC8AF0ED96
:10091000A42CFCEA8EF0A4CDA8F08BF0A42DCC384A
:1009200025F0FDE98FF0A42CCD35F0FCEB8EF0A482
:10093000FEA9F0EB8FF0A4CFC5F02ECD39FEE43C3C
:10094000FCEAA42DCE35F0FDE43CFC22E6FC08E6F2
:10095000FD08E6FE08E6FF22E0FCA3E0FDA3E0FEC2
:10096000A3E0FF22E2FC08E2FD08E2FE08E2FF222B
:10097000E6FB08E6FA08E6F922E0FBA3E0FAA3E0CA
:10098000F922E2FB08E2FA08E2F922E493FB74019F
:1009900093FA740293F922BB011A89828A83D0F0F8
:1009A000D0E0F8D0E0F9D0E0FAD0E0FBE8C0E0C059
:1009B000F00209EF5016E9F8D083D082D0E0F9D0E8
:1009C000E0FAD0E0FBC082C0830209E6BBFE16E974
:1009D000F8D083D082D0E0F9D0E0FAD0E0FBC0823A
:1009E000C0830209F822EBF608EAF608E9F622EBE2
:1009F000F0A3EAF0A3E9F022EBF208EAF208E9F248
:100A000022E5452431F8E6054522782E30070278A4
:100A100031E475F0011208A702070C2000EB7F2ECD
:100A2000D2008018EF540F2490D43440D4FF300407
:100A30000BEF24BFB41A0050032461FFE5466002A7
:100A400015460549E5497002054830070D782EE442
:100A500075F0011208A7EF020752021B307403D28F
:100A6000078003E4C207F5458B2E8A2F8930E4F511
:100A700046F548F549E54660077F20120A3C80F5B7
:100A80007547FFC201C200C202C203C205C206C24C
:100A900008120A0AFF700D3007057F00120A4DAFD9
:100AA00049AE4822B4255FC2D5C204120A0AFF2407
:100AB000D0B40A00501A75F00A784630D50508B649
:100AC000FF0106C6A426F620D5047002D20380D901
:100AD00024CFB41A00EF5004C2E5D204020D3AD27A
:100AE0000180C6D20080C0D20280BCD2D580BAD2EA
:100AF0000580B47F20120A3C2002077401B546002D
:100B000040F1120A01FF120A3C020A75D208D2060D
:100B10008095120A01FB120A01FA120A01F94A4BE6
:100B2000700679317A0E7BFF20022EE546602A7E20
:100B3000008E8275830012072560060EEE654770F1
:100B4000F0C2D5EBC0E0EAC0E0E9C0E0EE120D9AD9
:100B5000D0E0F9D0E0FAD0E0FB12070CFF60AAEB7E
:100B6000C0E0EAC0E0E9C0E0120A3CD0E02401F9AC
:100B7000D0E03400FAD0E0FBE5470460DCD547D98B
:100B80008087D20280A2120D7D60F7E547700104D4
:100B9000120427A947600DE547600914F547120EB6
:100BA00024EF60F3EA30E702F404C3995077EAF4E3
:100BB00025470430E701E404F547800D120D7D6000
:100BC000C1EA05472547120427EA7844F630E701D1
:100BD000E4254704D5470420050114120D9AE4C00A
:100BE000E0120E247844E6601320E70714F6120A98
:100BF00024802204F6D0E014C0E07F00120A24E52D
:100C0000476007120A1B1547800B300503120A1BA9
:100C1000D0E0020A75D0E00480C5120D7D60A0E529
:100C200047041204277844EAF6E5472005026001EC
:100C3000042404120D9A74FF04C0E0120E24120A58
:100C400024E5472005026003120A1BD0E0B547E8FF
:100C50007F45120A2E7844E67F2B30E7047F2DF47F
:100C600004C0E0120A3CD0E075F00A84C0F0120A19
:100C700025D0E0120A25020A75791080027908C28F
:100C800006C2088008D2D5790A8004790AC2D5E55F
:100C900047047002F547E4FAFDFEFF120A01FC7BEF
:100CA00008200113120A01FD7B1030000A120A010C
:100CB000FE120A01FF7B20EC3382D592D55013C37C
:100CC000E43000069FFFE49EFEE42001039DFDE466
:100CD0009CFCE4CBF8C201EC700CCFCECDCCE82468
:100CE000F8F870F38017C3EF33FFEE33FEED33FDFA
:100CF000EC33FCEB33FB994002FB0FD8E9EB3001FE
:100D000005F8D0E0C448B201C0E00AEC4D4E4F787F
:100D1000207B0070C2EAB5470040BCC0E0120D9CC9
:100D2000D0F0D0E0200104C4C0E0C4B201C0F01291
:100D30000A25D0F0D5F0EB020A751208D70B125332
:100D40000C79580AE34C0ADF420C7D4F0C85440CA9
:100D500085490AF8430C8B550BBC460C1A450B868B
:100D6000470E51500AE72D0AEB2E0B0E2B0AEF23EC
:100D70000B0C200E3A2A0AA74800000B06E547B4E0
:100D8000FF03754706120A01FC120A01FD120A014F
:100D9000FE120A01FF783D020456790AA2D520030B
:100DA00014300509B910020404B9080104A2D520C1
:100DB00006025001042002689202B546005034C079
:100DC000E07F203003197F30A20272067205500FB7
:100DD000120DF3C202C206C205C2087F30800F3076
:100DE0000503E9C0E0120A3C300503D0E0F9D0E089
:100DF000B546CC3005177F30B9100C120A3C7F582D
:100E00003004077F788003B90803120A3C300205DA
:100E10007F2D020A3C7F202008F87F2B2006F3223A
:100E2000920280CF7F00B407005005243DF8E6FF12
:100E300022286E756C6C2900D201120A013001F86B
:100E4000C201784630D50108F6020AA72D50434961
:100E500058120A012403B405004001E4900E4C939B
:100E6000120A2D743A120A2DD203754604020C7927
:100E7000E4F522F527F528F529F52CF52D7B0190D1
:100E8000007B04F0A37400F0A37478F09000B4EB3E
:100E9000F0A37400F0A3749CF078B77C007D017B14
:100EA000FF7A1B79D77E007F0A1206E67B007A0064
:100EB00079FC1208678F268E258D248C231200035F
:100EC000D2AF43E3407F007EC27D017C001215F06B
:100ED0007B337D447F44121A807531FF75321B7558
:100EE00033D38526378525368524358523347B0104
:100EF0007A00799C120A5D9000B4E0FBA3E0FAA3AB
:100F0000E0F912070CF52AFF3395E0FEEF64304E4E
:100F10007003752A319000B5E475F00112076490F2
:100F200000B4E0FBA3E0FAA3E0F912070CF52B9064
:100F300000B5E475F0011207647531007532007573
:100F400033007534107B007A00792A12120C90005D
:100F50007BE0FBA3E0FAA3E0F9EF12075290007CDC
:100F6000E475F0011207649000B4E0FBA3E0FAA37B
:100F7000E0F912070CF52AFF3395E0FEEF64304EDE
:100F80007003752A319000B5E475F0011207649082
:100F900000B4E0FBA3E0FAA3E0F912070CF52B90F4
:100FA00000B5E475F0011207647531007532007503
:100FB00033007534107B007A00792A12120C9000ED
:100FC0007BE0FBA3E0FAA3E0F9EF12075290007C6C
:100FD000E475F0011207649000B4E0FBA3E0FAA30B
:100FE000E0F912070CF52AFF3395E0FEEF64304E6E
:100FF0007003752A319000B5E475F0011207649012
:1010000000B4E0FBA3E0FAA3E0F912070CF52B9083
:1010100000B5E475F0011207647531007532007592
:1010200033007534107B007A00792A12120C90007C
:101030007BE0FBA3E0FAA3E0F9EF12075290007CFB
:10104000E475F0011207649000B4E0FBA3E0FAA39A
:10105000E0F912070CF52AFF3395E0FEC3EF943157
:10106000EE648094805003752A329000B5E475F0E8
:10107000011207649000B4E0FBA3E0FAA3E0F912C8
:10108000070CF52B9000B5E475F00112076475317B
:10109000007532007533007534107B007A00792AB0
:1010A00012120C90007BE0FBA3E0FAA3E0F9EF1230
:1010B0000752C281C295C286C200121AC350F912E9
:1010C0001B7F74B72522F582E43400F583EFF074BA
:1010D000B72522F582E43400F583E0640A60030258
:1010E00012079000B7E064017033900078E0FF9041
:1010F00000B9E06F7027900079E0FF9000BAE06FD0
:10110000701B90007AE0FF9000BBE0B5070F9000E5
:10111000BDE0752700752800F5291217EA9000B781
:10112000E06402703CA3E0FD65297002E5286004DC
:10113000EDF4702D9000B9E0752C00F52D30E00431
:10114000D2818002C2819000B9E0FF30E104D295E3
:101150008002C295EF30E204D2868002C286121766
:10116000EA9000B7E064037057E52D452C705120DC
:10117000810620950330864890007EE4F0A3F0A31A
:101180007480F0900078E0F9900081E4F0A3F0A37F
:10119000E9F0900079E0F9900084E4F0A3F0A3E98D
:1011A000F090007AE0F9900087E4F0A3F0A3E9F072
:1011B00090007BE0F990008AE4F0A3F0E91217F3C5
:1011C0009000B7E064087020A3E0FFF46009E5290F
:1011D0006F7002E52870111217EA9000B9E0FFA3C2
:1011E000E0FDA3E0FB121A809000B7E064097011E3
:1011F000E5294528700BFA90007ECAF0A3EA121781
:10120000F0E4F5220210B805220210B88B2E8A2FC6
:101210008930E4F53AF539F538F537F535F536E541
:1012200032453345316012EBC0E0EAC0E0E9C0E08E
:10123000AB31AA32A933120997AB2E0530E530AA9B
:101240002F7002052F14F912070CF53BC3940940C7
:1012500007E53BD3940D40E1E53B642060DBE53BD3
:10126000B42D054336038016E53BB42B0543360108
:10127000800C74FF2530F53074FF352FF52FE534E1
:1012800060046410703FAB2EAA2FA93012070C64C3
:10129000306009E534702E75340A802990000112FF
:1012A0000725FF64786004EFB458134336017534A2
:1012B0001074022530F530E4352FF52F8007E53422
:1012C0007003753408AB2E0530E530AA2F70020587
:1012D0002F14F912070CF53BC39461400AE53BD388
:1012E000947A5003533BDF74D0253BF53BC3940AFB
:1012F000400CE53B9411405374F9253BF53BE53B2D
:10130000C395345046433601AF347E00E4FCFDAB58
:101310003AAA39A938A8371208FDC8ECC8C9EDC9DE
:10132000CAEECACBEFCBE4FCFDFEEB253BF53AEE73
:101330003AF539ED39F538EC38F537AF3AAE39AD25
:1013400038FC3350804336040212C5E53620E006EF
:10135000E4FFFEFDFC22E53245334531601EAB2E35
:10136000E53024FFF9E52F34FFFAEBC0E0EAC0E0F6
:10137000E9C0E0AB31AA32A933120997E53630E271
:101380001230E107E4FFFEFD7C802274FFFFFEFDCA
:101390007C7F22E536AF3AAE39AD38AC3730E10369
:1013A000020848223E9248DA3ECCCCCD3F2AAAAB76
:1013B000400000003F8000003F9837F03FB504F345
:1013C0003FD744FC3E3172173EB172173F0515916D
:1013D0003EDE5BD9D2008002C200EDD2E7F8CD3309
:1013E000EC3304700BBD800592D502037802036EC6
:1013F00040FBD31460F2F5F07C3FEE7A00C3949684
:10140000C8948B40230AC89469C8941A401A0AC821
:101410009468C8941F40110AC8945AC8942540087B
:1014200005F07A00CDC2E7CDC0F08C3C8D3D8E3EFC
:101430008F3FEA2323C0E024B4F582E43413F5831C
:1014400012089712002DECC0E0EDC0E0EEC0E0EF16
:10145000C0E0120887A83CA93DAA3EAB3F12002974
:10146000D0E0FBD0E0FAD0E0F9D0E0B2E7F8120229
:10147000278C3C8D3D8E3E8F3F9013A47403120544
:10148000C9A83CA93DAA3EAB3F12011ED0E0600FA7
:1014900024C0F582E43413F58312089712002D8CD2
:1014A0003C8D3D8E3E8F3FD0E0C3947FFDE49400A1
:1014B000FC1202C97B187A727931783F12011EA89A
:1014C0003CA93DAA3EAB3F12002D30000B7BD97AE0
:1014D0005B79DE783E12011E228F358E348D338C7F
:1014E00032E4FFFE7D807C3FAB35AA34A933A832BD
:1014F00012039D7009AF35AE34AD33AC3222AF3537
:10150000AE34AD33AC32120383FBAF39AE38AD37F6
:10151000AC36120383FFBF0108E4FFFE7D807C3FF1
:1015200022EF64046022EB6404601DBB0127E4FF2A
:10153000FEFDFCAB39AA38A937A83612039D600816
:101540004006E4FFFEFDFC2274FFF539F538F5375F
:10155000F5360215E7E4F53AF53BFFFEFDFCAB3549
:10156000AA34A933A83212039D504BAF39AE38AD1F
:1015700037AC361203028E3A8F3BAC3AAD3BEC12DD
:1015800002C9C8ECC8C9EDC9CAEECACBEFCBAF39A6
:10159000AE38AD37AC36120029E4FBFAF9F8120385
:1015A0009D70A5AF35AE34AD33AC321204168F3515
:1015B0008E348D338C32AF35AE34AD33AC32121342
:1015C000D8AB39AA38A937A83612011E1216F08FE7
:1015D000398E388D378C36E53B30E00B1204168F90
:1015E000398E388D378C36AF39AE38AD37AC3622C0
:1015F0008F318E308D2F8C2EE49000C1F0A304F03B
:10160000300B030216B7E4FF7EE1FDFCAB31AA30DC
:10161000A92FA82EC31208565019E4FF7E4BFDFCDB
:10162000A82EC31208569000C25005740CF0800317
:101630007404F09000C2E0FBE4FAF9F87F207ED752
:101640007D757C01121A3CAB31AA30A92FA82E124D
:1016500007B6E47B02FAF9F81207B6EFF40490003B
:10166000C1F043F13043A41053A4DF43802053D48E
:10167000CF43E1015388BF538EF7A3E0FF7E0064A0
:10168000017005438E088014EF64044E7005438E8C
:10169000018009EF640C4E7003538EFE4389209045
:1016A00000C1E0FFF58B8F8D43884043981043982D
:1016B00020D2AFD2ACD20B2233DA929E35B1601178
:1016C000377FE5FE392184893AAEC3FF3C1D955B27
:1016D0003D6358473E75FDF03F3172183F80000072
:1016E000C2D502037802036EBD80FA50F30203757F
:1016F000ED33EC330460F17B3B7AAA79B8783F1282
:10170000011EED33EC3392D5247B5011A2D570DB52
:10171000500BED448024045004A2D580CEEFFBEEA4
:10172000FAEDF9ECF8120302EFF582F404FC120270
:10173000CE12002DC0829016B874091205D8ED3370
:10174000CC33D0F092D525F0A2D57001C313CC13C1
:10175000FD22602800500000000000000000000092
:101760000000000000000000000000000000000079
:1017700000000000000000000000000000006050B9
:101780000000000000000000000000000000000059
:101790000000000000000000000000000000000049
:1017A0000000000000000000000000000000000039
:1017B0000000000000000000000000000000000029
:1017C0000000000000000000000000000000000019
:1017D0000000010A00010800010B00010900C10915
:1017E000C10AC10C010C00C10B0090007EE4F0A303
:1017F000F07480A3F0A3E4F0A3F0A374A0F07B0145
:101800007A00797E8B2E8A2F8930E4FFFEFD300A24
:1018100018E58830E613308FFDC28F0FBF00010E30
:10182000D3EF9400EE940940E5AB2EAA2FA9301215
:1018300008B7EA494B7006EDC3950C503AAF08D390
:10184000EF9427748094804007D20AD299200AFD31
:10185000AB2EAA2FA9301208B7AE0874502EF5820D
:10186000E43400F583E9F0050874032530F530E42D
:10187000352FF52F0D80B2E4F50CD20AD299221241
:101880000022787FE4F6D8FD7581490218C9020E5E
:1018900070E493A3F8E493A34003F68001F208DF19
:1018A000F48029E493A3F85407240CC8C333C45428
:1018B0000F4420C8834004F456800146F6DFE480DC
:1018C0000B0102040810204080901752E47E01931F
:1018D00060BCA3FF543F30E509541FFEE493A360AE
:1018E000010ECF54C025E060A840B8E493A3FAE409
:1018F00093A3F8E493A3C8C582C8CAC583CAF0A35A
:10190000C8C582C8CAC583CADFE9DEE780BEAF307A
:1019100012191AAF3112191AAF05EF30E707D2903A
:10192000121B6D8003121B90EF30E607D290121B42
:101930006D8003121B90EF30E507D290121B6D8073
:1019400003121B90EF30E407D290121B6D8003123C
:101950001B90EF30E307D290121B6D8003121B9097
:10196000EF30E207D290121B6D8003121B90EF3014
:10197000E107D290121B6D8003121B90EF30E0053F
:10198000D290021B6D121B9022C0E0C083C082C0A7
:10199000D075D000C007309926E50AC395085013CA
:1019A000AF0A74502FF582E43400F583E0F5990511
:1019B0000A8008750A00750800C20AC29980293099
:1019C0009826D20CAF0BD3EF944E748094804005D0
:1019D000750B00D209AF0B74002FF582E43400F5CB
:1019E00083E599F0050BC298D007D0D0D082D08380
:1019F000D0E0327597A5E4F531F530F52FF52EE4FA
:101A00007FCCFEFDFCAB31AA30A92FA82EC3120853
:101A100056501800E5312401F531E43530F530E455
:101A2000352FF52FE4352EF52E80D4A2AF9200C2CB
:101A3000AF7597DE7597ADA20092AF22C2D5E830A0
:101A4000E70FB2D5E4C39BFBE49AFAE499F9E49872
:101A5000F8EC30E717B2D5121A721207B6E4C39B3E
:101A6000FBE49AFAE499F9E498F880031207B63097
:101A7000D50DE4C39FFFE49EFEE49DFDE49CFC22A3
:101A80008F2E8B2FAE05AF06121AFC8F30AF2E12A1
:101A90001AFC8F31AF2F121AFCAD07E4FBFA1219B2
:101AA0000E0BBB00010AEB64094A70F2121BA1E4A1
:101AB000FAFB12190E0BBB00010AEB64094A70F223
:101AC000021BA1E4FFFEC20CE509C3950B400330E5
:101AD0000913AD09D3ED944E748094804005C2097A
:101AE000E4F509D322200002C322308FFDC28F0FFC
:101AF000BF00010EBE1CD1BFC0CEC322AC07E41292
:101B000002CEE4FBFA797F78431202277433F53969
:101B1000F538F5377536401214D9E4FBFA797F7839
:101B20004312011EE4FBFAF9783F12002D02030272
:101B3000EFB40A07740D121B3B740A309811A89970
:101B4000B8130CC2983098FDA899C298B811F63015
:101B500099FDC299F59922E5C8540453C8FB75CD87
:101B6000FF75CCFE75CBFF75CAFF42C8220000008E
:101B7000000000000000000000000000C29022AF42
:101B80000974002FF582E43400F583E0FF05092293
:101B9000D2900000000000000000C2900000000091
:101BA000227F107E27C290EF1FAC0670011E4C7082
:101BB000F622758E3D7589204388402275E3407575
:101BC000E1012275A50122E4F5A92275A89022431E
:101BD000981022256C580000000000000000000052
:011BE0000004
:00000001FF
