:020000040000FA
:1000000002181802034BE86480F8E933E833601102
:100010000460F0ED33EC337009E8FCE9FDEAFEEB37
:10002000FF220460DED3EB9FEA9EE99DE8C2E78CE5
:10003000F0C2F795F0400CE8CCF8E9CDF9EACEFA39
:10004000EBCFFB12031685D0F05804700320D5B314
:10005000E80470075002B2D502035592D5EC046053
:10006000F7E4CCC0E0C398F8603B94186008400DFA
:10007000D0E0FB02032DE4FBFAC9FC8028E830E461
:1000800006E4C9FBE4CAFCE830E305E4C9CACBFCDA
:10009000E854076010F8C3E913F9EA13FAEB13FB0D
:1000A000EC13FCD8F130F52FC3E49CFCEF9BFFEE82
:1000B0009AFEED99FDD0E0FBEF4E4D4C701222DB25
:1000C00003020352EC2CFCEF33FFEE33FEED33FD65
:1000D000ED30E7EB02032DEF2BFFEE3AFEED39FD9D
:1000E000D0E0FB50130BBB0003020355ED13FDEEF4
:1000F00013FEEF13FFEC13FC02032DEC4D6011E82F
:10010000497017ED33EC3304600DE4FCFFFEFD2273
:10011000E933E8330470F802034B12031658046005
:1001200009E4CC24815006285009020355284003D5
:10013000020352C0E0EB4A7044B98006D0E0FB02F3
:100140000341EF4E701CBD8008EBFFEAFEE9FD8025
:10015000EBE98DF0A4FEE5F00201E4E9CDF9EAFE59
:10016000EBFFEF89F0A4FCE5F0CE89F0A42EFFE4CC
:1001700035F0CD89F0A42DFEE435F08067EF4E70A8
:1001800005BD80D780C3EF8BF0A4ACF0EE8BF0A45C
:100190002CFCE435F0F8EF8AF0A42CE5F038FCE410
:1001A00033CB8DF0A42CFCE5F03BF8EE8AF0A42CC8
:1001B000FCE5F038F8E433CF89F0A42CFCE5F03806
:1001C000CF3400CE89F0A42FFFE5F03EFEE433C922
:1001D0008DF0A42EFEE5F039CD8AF0A42FFFE5F0D6
:1001E0003EFEE43DFD33D0E0FB50070BBB000F02A9
:1001F0000355EC2CFCEF33FFEE33FEED33FD020331
:100200002D020355EC5D046005E8590470030203F8
:100210004B120316580460F6EC4860F2EC7004FDD3
:10022000FEFF22C860DB2481C85009C398600250D9
:10023000060203529850CAF582E9294B4A7005AB71
:100240008202034175F0007C1A7880C3EF9BEE9A1E
:10025000ED99400DC3EF9BFFEE9AFEED99FDE8424C
:10026000F0DC23ACF0D0E0FFD0E0FED0E0FDAB82CC
:1002700020E7101BEB60BAEC2CFCEF33FFEE33FEF3
:10028000ED33FD02032DE803F830E705C0F075F00B
:1002900000EF2FFFEE33FEED33FD40B830E7C280B4
:1002A000AA75F020800E75F010800575F0087D00AD
:1002B0007E007F003392D530D503120757EC3340D0
:1002C00010EF33FFEE33FEED33FDEC33FCD5F0EDF4
:1002D00022E5F0247EA2D513CC92E7CDCEFF22ED0D
:1002E000D2E7CD33EC3392D524814006E4FFFEFD06
:1002F000FC22FCE4CFCECDCC24E0501174FF80ED85
:10030000C3CC13CCCD13CDCE13CECF13CF0470F00E
:1003100030D5DE020757E9D2E7C933E833F892D582
:10032000EDD2E7CD33EC33FC5002B2D522EC30E70E
:10033000100FBF000C0EBE00080DBD00040BEB60DB
:1003400014A2D5EB13FCED92E7FD2274FFFCFDFE39
:10035000FF22E480F8A2D574FF13FC7D80E480EFD7
:10036000ED33EC33601004700FED547F70057402B0
:1003700092E0227404220422E42274F8CC6480CC3B
:10038000C86480C8F58204604FC3EB9FF5F0EA9E15
:1003900042F0E99D42F0E89C45F0603C501DE5824A
:1003A0005FFFE582D313CB5BCBF42B5582FB502848
:1003B0000ABA002409B9002008801DE5825BFBE52C
:1003C00082D313CF5FCFF4C3132F5582FF50090E92
:1003D000BE00050DBD00010CC3EB9FF5F0EA9E4287
:1003E000F0E99D42F0E89C45F06007CC4820E70129
:1003F000B3EC22ED33EC33600A047003BD8004ECEF
:10040000B2E7FC22F920E72824F950037907E4F445
:100410002402FB18DBFDE624FB5014E9600DE4F632
:1004200018E604F6B40A08E4F6D9F57401F60A22CF
:10043000C2D522ED33EC3392D5FA602AB4FF33ED06
:10044000C2E77BFF60067A047958E4227A04796176
:1004500020D5047A04795C224E614E002B494E4629
:10046000002D494E4600E47A08F608DAFC7B007459
:100470000722E8C0E0ECC0E0EDC0E0EEC0E0EFC075
:10048000E0EA75F010A4CAABF075F04DA42BFBE4C4
:1004900035F0FCEA2410FAEB34C5FBEC34D9FCED62
:1004A000C2E7FF75F056A4F42411C5F0F434C58FEB
:1004B000F0A42AE5F03BE43CF620E714120566D0F0
:1004C000E0FFD0E0FED0E0FDD0E0FC12020480149A
:1004D000F404120566D0E0FFD0E0FED0E0FDD0E0ED
:1004E000FC1200FBD0E0F8E6FAEDD2E7CD33EC33B6
:1004F0002482FBE4C3CF33CFCE33CECD33CD33DB39
:10050000F37B0775F00A846004F6081B0AE5F0F631
:10051000088FF0740AA4FFACF08EF0740AA42CFECD
:10052000ACF050010C8DF0740AA42CFDE435F0F60B
:1005300008DBDE7407223F8000004120000042C833
:100540000000447A0000461C400047C35000497434
:1005500024004B1896804CBEBC205A0E1BCA675311
:10056000C21C749DC5AEFB60065407601C23231299
:100570000594EB5438600912058012058F1200FBB8
:10058000ECF8EDF9EEFAEFCB22EB12058F80F15487
:100590003803241C900536FE93FC0EEE93FD0EEE00
:1005A000930ECE93FF22C0E0EFFBEEFAEDF9ECF8EC
:1005B0001200FBD0E0F5F0EFFBEEFAEDF9ECF812EB
:1005C0000796A3A3A3A3E8C0E0E9C0E0EAC0E0EB7C
:1005D000C0E0C0F01200FB1207A6A3A3A3A3120061
:1005E0000AD0F0D0E0FBD0E0FAD0E0F9D0E0F8D5C6
:1005F000F0D422E709F608DFFA8046E709F208DFBF
:10060000FA803E88828C83E709F0A3DFFA8032E328
:1006100009F608DFFA8078E309F208DFFA807088CB
:10062000828C83E309F0A3DFFA806489828A83E005
:10063000A3F608DFFA805889828A83E0A3F208DFF4
:10064000FA804C80D280FA80C680D4806980F280A3
:1006500033801080A680EA809A80A880DA80E280C9
:10066000CA803389828A83ECFAE493A3C8C582C81E
:10067000CCC583CCF0A3C8C582C8CCC583CCDFE988
:10068000DEE7800D89828A83E493A3F608DFF9EC24
:10069000FAA9F0EDFB2289828A83ECFAE0A3C8C5AF
:1006A00082C8CCC583CCF0A3C8C582C8CCC583CCD6
:1006B000DFEADEE880DB89828A83E493A3F208DF45
:1006C000F980CC88F0EF60010E4E60C388F0ED2415
:1006D00002B4040050B9F582EB2402B4040050AF18
:1006E000232345822390064373BB010689828A83B4
:1006F000E0225002E722BBFE02E32289828A83E4E1
:100700009322BB010CE58229F582E5833AF583E06B
:10071000225006E92582F8E622BBFE06E92582F88A
:10072000E222E58229F582E5833AF583E49322BB50
:10073000010689828A83F0225002F722BBFE01F370
:1007400022C5F0F8A3E028F0C5F0F8E58215827024
:10075000021583E038F022C3E49FFFE49EFEE49D8F
:10076000FDE49CFC22EB9FF5F0EA9E42F0E99D42FD
:10077000F0E89C45F022BB010789828A8302088841
:100780005005E9F802087CBBFE05E9F802089489E7
:10079000828A83020796E493FC740193FD740293AA
:1007A000FE740393FF22E493F8740193F9740293A7
:1007B000FA740393FB22F5F0C582A4C582C5F0C587
:1007C00083A42583F58322FAE6FB0808E6F925F0E1
:1007D000F618E6CA3AF622BB010DE58229F582E554
:1007E000833AF5830208A95007E92582F80208A098
:1007F000BBFE07E92582F80208B2E58229F582E509
:10080000833AF5830208BBD083D082F8E493701258
:10081000740193700DA3A393F8740193F5828883F8
:10082000E4737402936860EFA3A3A380DFE88FF002
:10083000A4CC8BF0A42CFCE98EF0A42CFC8AF0ED67
:10084000A42CFCEA8EF0A4CDA8F08BF0A42DCC381B
:1008500025F0FDE98FF0A42CCD35F0FCEB8EF0A453
:10086000FEA9F0EB8FF0A4CFC5F02ECD39FEE43C0D
:10087000FCEAA42DCE35F0FDE43CFC22E6FC08E6C3
:10088000FD08E6FE08E6FF22E0FCA3E0FDA3E0FE93
:10089000A3E0FF22E2FC08E2FD08E2FE08E2FF22FC
:1008A000E6FB08E6FA08E6F922E0FBA3E0FAA3E09B
:1008B000F922E2FB08E2FA08E2F922E493FB740170
:1008C00093FA740293F922BB011A89828A83D0F0C9
:1008D000D0E0F8D0E0F9D0E0FAD0E0FBE8C0E0C02A
:1008E000F002091F5016E9F8D083D082D0E0F9D089
:1008F000E0FAD0E0FBC082C083020916BBFE16E915
:10090000F8D083D082D0E0F9D0E0FAD0E0FBC0820A
:10091000C08302092822EBF608EAF608E9F622EB82
:10092000F0A3EAF0A3E9F022EBF208EAF208E9F218
:1009300022E5452431F8E6054522782E3007027875
:1009400031E475F0011207C70206E92000EB7F2EA3
:10095000D2008018EF540F2490D43440D4FF3004D8
:100960000BEF24BFB41A0050032461FFE546600278
:1009700015460549E5497002054830070D782EE413
:1009800075F0011207C7EF02072F02178F7403D209
:10099000078003E4C207F5458B2E8A2F8930E4F5E2
:1009A00046F548F549E54660077F2012096C80F559
:1009B0007547FFC201C200C202C203C205C206C21D
:1009C0000812093AFF700D3007057F0012097DAF4C
:1009D00049AE4822B4255FC2D5C20412093AFF24A9
:1009E000D0B40A00501A75F00A784630D50508B61A
:1009F000FF0106C6A426F620D5047002D20380D9D2
:100A000024CFB41A00EF5004C2E5D204020C6AD21B
:100A10000180C6D20080C0D20280BCD2D580BAD2BA
:100A20000580B47F2012096C2002077401B54600CE
:100A300040F1120931FF12096C0209A5D208D20651
:100A40008095120931FB120931FA120931F94A4B2A
:100A5000700679617A0D7BFF20022EE546602A7EC2
:100A6000008E8275830012070260060EEE654770E5
:100A7000F0C2D5EBC0E0EAC0E0E9C0E0EE120CCA7B
:100A8000D0E0F9D0E0FAD0E0FB1206E9FF60AAEB73
:100A9000C0E0EAC0E0E9C0E012096CD0E02401F94E
:100AA000D0E03400FAD0E0FBE5470460DCD547D95C
:100AB0008087D20280A2120CAD60F7E54770010476
:100AC000120404A947600DE547600914F547120DAB
:100AD00054EF60F3EA30E702F404C3995077EAF484
:100AE00025470430E701E404F547800D120CAD60A2
:100AF000C1EA05472547120404EA7844F630E701C5
:100B0000E4254704D5470420050114120CCAE4C0AB
:100B1000E0120D547844E6601320E70714F612093A
:100B200054802204F6D0E014C0E07F00120954E59E
:100B300047600712094B1547800B30050312094B1C
:100B4000D0E00209A5D0E00480C5120CAD60A0E59C
:100B500047041204047844EAF6E5472005026001E0
:100B6000042404120CCA74FF04C0E0120D541209CC
:100B700054E547200502600312094BD0E0B547E871
:100B80007F4512095E7844E67F2B30E7047F2DF421
:100B900004C0E012096CD0E075F00A84C0F01209BC
:100BA00055D0E01209550209A5791080027908C2D2
:100BB00006C2088008D2D5790A8004790AC2D5E530
:100BC00047047002F547E4FAFDFEFF120931FC7B91
:100BD00008200113120931FD7B1030000A1209317F
:100BE000FE120931FF7B20EC3382D592D55013C31E
:100BF000E43000069FFFE49EFEE42001039DFDE437
:100C00009CFCE4CBF8C201EC700CCFCECDCCE82438
:100C1000F8F870F38017C3EF33FFEE33FEED33FDCA
:100C2000EC33FCEB33FB994002FB0FD8E9EB3001CE
:100C300005F8D0E0C448B201C0E00AEC4D4E4F7850
:100C4000207B0070C2EAB5470040BCC0E0120CCC6B
:100C5000D0F0D0E0200104C4C0E0C4B201C0F01262
:100C60000955D0F0D5F0EB0209A51208070A425346
:100C70000BA9580A134C0A0F420BAD4F0BB5440B8E
:100C8000B5490A28430BBB550AEC460B4A450AB640
:100C9000470D81500A172D0A1B2E0A3E2B0A1F23CF
:100CA0000A3C200D6A2A09D74800000A36E547B4F5
:100CB000FF03754706120931FC120931FD12093193
:100CC000FE120931FF783D020433790AA2D52003D0
:100CD00014300509B910020404B9080104A2D52092
:100CE00006025001042002689202B546005034C04A
:100CF000E07F203003197F30A20272067205500F88
:100D0000120D23C202C206C205C2087F30800F3016
:100D10000503E9C0E012096C300503D0E0F9D0E02A
:100D2000B546CC3005177F30B9100C12096C7F58CE
:100D30003004077F788003B9080312096C3002057C
:100D40007F2D02096C7F202008F87F2B2006F322DC
:100D5000920280CF7F00B407005005243DF8E6FFE3
:100D600022286E756C6C2900D2011209313001F80D
:100D7000C201784630D50108F60209D72D50434903
:100D8000581209312403B405004001E4900D7C930E
:100D900012095D743A12095DD203754604020BA96B
:100DA000E4F522F527F528752901F52CF52D7B01B1
:100DB00090000304F0A37400F0A37400F090003CD2
:100DC000EBF0A37400F0A37424F0783F7C007D0165
:100DD0007BFF7A18795E7E007F0A1206C37B007A59
:100DE0000079FC1207768F268E258D248C2312170E
:100DF000B6D2AF43E3407B647D647F641216D8753E
:100E000031FF75321875335A852637852536852486
:100E1000358523347B017A00792412098D90003CBA
:100E2000E0FBA3E0FAA3E0F91206E9F52AFF339507
:100E3000E0FEEF64304E7003752A3190003DE4759A
:100E4000F00112074190003CE0FBA3E0FAA3E0F9B7
:100E50001206E9F52B90003DE475F001120741758B
:100E600031007532007533007534107B007A0079DB
:100E70002A121196900003E0FBA3E0FAA3E0F9EF39
:100E800012072F900004E475F00112074190003C16
:100E9000E0FBA3E0FAA3E0F91206E9F52AFF339597
:100EA000E0FEEF64304E7003752A3190003DE4752A
:100EB000F00112074190003CE0FBA3E0FAA3E0F947
:100EC0001206E9F52B90003DE475F001120741751B
:100ED00031007532007533007534107B007A00796B
:100EE0002A121196900003E0FBA3E0FAA3E0F9EFC9
:100EF00012072F900004E475F00112074190003CA6
:100F0000E0FBA3E0FAA3E0F91206E9F52AFF339526
:100F1000E0FEEF64304E7003752A3190003DE475B9
:100F2000F00112074190003CE0FBA3E0FAA3E0F9D6
:100F30001206E9F52B90003DE475F00112074175AA
:100F400031007532007533007534107B007A0079FA
:100F50002A121196900003E0FBA3E0FAA3E0F9EF58
:100F600012072F900004E475F00112074190003C35
:100F7000E0FBA3E0FAA3E0F91206E9F52AFF3395B6
:100F8000E0FEC3EF9431EE648094805003752A3202
:100F900090003DE475F00112074190003CE0FBA396
:100FA000E0FAA3E0F91206E9F52B90003DE475F0B4
:100FB0000112074175310075320075330075341028
:100FC0007B007A00792A121196900003E0FBA3E0DF
:100FD000FAA3E0F9EF12072FD281D295D286121828
:100FE00031743F2522F582E43400F583EFF0743F3D
:100FF0002522F582E43400F583E0640A60030211DF
:101000009190003FE06401705C900000E0FF900070
:1010100041E06F7050900001E0FF900042E06F707F
:1010200044900002E0FF900043E06F7038900003AE
:10103000E0FF900044E0B5072CA3E0752700752879
:1010400000F529900006E4F0A3F0A37480F0A3E477
:10105000F0A3F0A304F07B00A314F0A3F0A374A00A
:10106000F00B12172890003FE06402704EA3E0FDE1
:1010700065297002E5286004EDF4703F900041E0BE
:10108000752C00F52D30E004C2818002D2819000E1
:1010900041E0FF30E104C2958002D295EF30E204D6
:1010A000C2868002D286900006E4F0A3F0A374808A
:1010B000F0A3E4F0A3F0740212171B90003FE06469
:1010C00003705DE52D452C7057E52945287051309A
:1010D0008106309503208648900006E4F0A3F0A333
:1010E0007480F0900000E0F9900009E4F0A3F0A310
:1010F000E9F0900001E0F990000CE4F0A3F0A3E91E
:10110000F0900002E0F990000FE4F0A3F0A3E9F002
:10111000900003E0F9900012E4F0A3F0E912171B2D
:1011200090003FE06408703DA3E0FFF46009E5290A
:101130006F7002E528702E900006E4F0A3F0A3740F
:1011400080F0A3E4F0A3F0A37408F0A3E4F0A3F00C
:10115000A374A0F0900041E0FFA3E0FDA3E0FB1228
:1011600016D812172690003FE06409701EE5294545
:10117000287018FA900006CAF0A3EAF0A37480F071
:10118000A3E4F0A3F0A3740912171CE4F522020FE4
:10119000DE0522020FDE8B2E8A2F8930E4F53AF528
:1011A00039F538F537F535F536E5324533453160F3
:1011B00012EBC0E0EAC0E0E9C0E0AB31AA32A933EB
:1011C0001208C7AB2E0530E530AA2F7002052F1488
:1011D000F91206E9F53BC394094007E53BD3940DAA
:1011E00040E1E53B642060DBE53BB42D054336037D
:1011F0008016E53BB42B05433601800C74FF253087
:10120000F53074FF352FF52FE53460046410703F1E
:10121000AB2EAA2FA9301206E964306009E53470BC
:101220002E75340A8029900001120702FF6478604D
:1012300004EFB4581343360175341074022530F5A9
:1012400030E4352FF52F8007E5347003753408AB93
:101250002E0530E530AA2F7002052F14F91206E989
:10126000F53BC39461400AE53BD3947A5003533B6A
:10127000DF74D0253BF53BC3940A400CE53B941149
:10128000405374F9253BF53BE53BC3953450464349
:101290003601AF347E00E4FCFDAB3AAA39A938A888
:1012A0003712082DC8ECC8C9EDC9CAEECACBEFCBBE
:1012B000E4FCFDFEEB253BF53AEE3AF539ED39F568
:1012C00038EC38F537AF3AAE39AD38FC335080439F
:1012D000360402124FE53620E006E4FFFEFDFC2254
:1012E000E53245334531601EAB2EE53024FFF9E58C
:1012F0002F34FFFAEBC0E0EAC0E0E9C0E0AB31AA6E
:1013000032A9331208C7E53630E21230E107E4FFB4
:10131000FEFD7C802274FFFFFEFD7C7F22E536AF60
:101320003AAE39AD38AC3730E103020757223E926E
:1013300048DA3ECCCCCD3F2AAAAB400000003F802B
:1013400000003F9837F03FB504F33FD744FC3E31EF
:1013500072173EB172173F0515913EDE5BD9D20080
:101360008002C200EDD2E7F8CD33EC3304700BBD40
:10137000800592D502035502034B40FBD31460F263
:10138000F5F07C3FEE7A00C39496C8948B40230A14
:10139000C89469C8941A401A0AC89468C8941F402F
:1013A000110AC8945AC89425400805F07A00CDC2A5
:1013B000E7CDC0F08C3C8D3D8E3E8F3FEA2323C0AD
:1013C000E0243EF582E43413F5831207A612000AE6
:1013D000ECC0E0EDC0E0EEC0E0EFC0E0120796A880
:1013E0003CA93DAA3EAB3F120006D0E0FBD0E0FA9C
:1013F000D0E0F9D0E0B2E7F81202048C3C8D3D8ECB
:101400003E8F3F90132E74031205A6A83CA93DAA57
:101410003EAB3F1200FBD0E0600F244AF582E4347B
:1014200013F5831207A612000A8C3C8D3D8E3E8F69
:101430003FD0E0C3947FFDE49400FC1202A67B1829
:101440007A727931783F1200FBA83CA93DAA3EABE5
:101450003F12000A30000B7BD97A5B79DE783E12AE
:1014600000FB228F358E348D338C32E4FFFE7D807D
:101470007C3FAB35AA34A933A83212037A7009AF86
:1014800035AE34AD33AC3222AF35AE34AD33AC32E1
:10149000120360FBAF39AE38AD37AC36120360FFD4
:1014A000BF0108E4FFFE7D807C3F22EF64046022E0
:1014B000EB6404601DBB0127E4FFFEFDFCAB39AA11
:1014C00038A937A83612037A60084006E4FFFEFD0B
:1014D000FC2274FFF539F538F537F536021571E45D
:1014E000F53AF53BFFFEFDFCAB35AA34A933A83233
:1014F00012037A504BAF39AE38AD37AC361202DF3B
:101500008E3A8F3BAC3AAD3BEC1202A6C8ECC8C990
:10151000EDC9CAEECACBEFCBAF39AE38AD37AC367A
:10152000120006E4FBFAF9F812037A70A5AF35AEA3
:1015300034AD33AC321203F38F358E348D338C32AD
:10154000AF35AE34AD33AC32121362AB39AA38A921
:1015500037A8361200FB1215B28F398E388D378CB2
:1015600036E53B30E00B1203F38F398E388D378C24
:1015700036AF39AE38AD37AC362233DA929E35B15C
:101580006011377FE5FE392184893AAEC3FF3C1DE7
:10159000955B3D6358473E75FDF03F3172183F80C3
:1015A0000000C2D502035502034BBD80FA50F3027E
:1015B0000352ED33EC330460F17B3B7AAA79B878BF
:1015C0003F1200FBED33EC3392D5247B5011A2D5B2
:1015D00070DB500BED448024045004A2D580CEEF84
:1015E000FBEEFAEDF9ECF81202DFEFF582F404FC01
:1015F0001202AB12000AC08290157A74091205B566
:10160000ED33CC33D0F092D525F0A2D57001C313C1
:10161000CC13FD22AF30121620AF31121620AF05C9
:10162000EF30E707D2901217E480031217F6EF307D
:10163000E607D2901217E480031217F6EF30E507A1
:10164000D2901217E480031217F6EF30E407D2901D
:101650001217E480031217F6EF30E307D290121747
:10166000E480031217F6EF30E207D2901217E480FD
:10167000031217F6EF30E107D2901217E48003123D
:1016800017F6EF30E005D2900217E41217F6227534
:1016900097A5E4F531F530F52FF52EE47FCCFEFD6E
:1016A000FCAB31AA30A92FA82EC312076550180031
:1016B000E5312401F531E43530F530E4352FF52FEF
:1016C000E4352EF52E80D4A2AF9200C2AF7597DE1E
:1016D0007597ADA20092AF228F2E8B2FAE05AF066D
:1016E00012175B8F30AF2E12175B8F31AF2F12178F
:1016F0005BAD07E4FBFA1216140BBB00010AEB64A6
:10170000094A70F2121807E4FAFB1216140BBB0018
:10171000010AEB64094A70F2021807A3F0A3E4F08F
:10172000A3F0A374A0F07B017A0079068B2E8A2F98
:101730008930E4FDFCAB2EAA2FA9308D828C8374F6
:10174000031207B61207D7AF011218471218310D4E
:10175000BD00010CED640A4C70DB22AC07E4120200
:10176000ABE4FBFA797F78431202047433F539F560
:1017700038F537753640121463E4FBFA797F784305
:101780001200FBE4FBFAF9783F12000A0202DFEFD5
:10179000B40A07740D12179A740A309811A899B8F0
:1017A000130CC2983098FDA899C298B811F63099D8
:1017B000FDC299F5992212168F121839121840128B
:1017C000184C1218501217D1121827121854021858
:1017D00058AF885388AF758D96EF5440FEEF541084
:1017E0004E428822000000000000000000000000BF
:1017F000000000C29022D290000000000000000013
:10180000C29000000000227F107E27C290EF1FAC24
:101810000670011E4C70F622121859787FE4F6D833
:10182000FD758149020DA0758E0875892043884099
:10183000223098FDC298AF992275A41075D4422227
:1018400075A50175D520228F99C2992275E10122D3
:10185000E4F5A922439810222222256C58000000AA
:08186000000000000000000080
:00000001FF
