:020000040000FA
:1000000002181702034BE86480F8E933E833601103
:100010000460F0ED33EC337009E8FCE9FDEAFEEB37
:10002000FF220460DED3EB9FEA9EE99DE8C2E78CE5
:10003000F0C2F795F0400CE8CCF8E9CDF9EACEFA39
:10004000EBCFFB12031685D0F05804700320D5B314
:10005000E80470075002B2D502035592D5EC046053
:10006000F7E4CCC0E0C398F8603B94186008400DFA
:10007000D0E0FB02032DE4FBFAC9FC8028E830E461
:1000800006E4C9FBE4CAFCE830E305E4C9CACBFCDA
:10009000E854076010F8C3E913F9EA13FAEB13FB0D
:1000A000EC13FCD8F130F52FC3E49CFCEF9BFFEE82
:1000B0009AFEED99FDD0E0FBEF4E4D4C701222DB25
:1000C00003020352EC2CFCEF33FFEE33FEED33FD65
:1000D000ED30E7EB02032DEF2BFFEE3AFEED39FD9D
:1000E000D0E0FB50130BBB0003020355ED13FDEEF4
:1000F00013FEEF13FFEC13FC02032DEC4D6011E82F
:10010000497017ED33EC3304600DE4FCFFFEFD2273
:10011000E933E8330470F802034B12031658046005
:1001200009E4CC24815006285009020355284003D5
:10013000020352C0E0EB4A7044B98006D0E0FB02F3
:100140000341EF4E701CBD8008EBFFEAFEE9FD8025
:10015000EBE98DF0A4FEE5F00201E4E9CDF9EAFE59
:10016000EBFFEF89F0A4FCE5F0CE89F0A42EFFE4CC
:1001700035F0CD89F0A42DFEE435F08067EF4E70A8
:1001800005BD80D780C3EF8BF0A4ACF0EE8BF0A45C
:100190002CFCE435F0F8EF8AF0A42CE5F038FCE410
:1001A00033CB8DF0A42CFCE5F03BF8EE8AF0A42CC8
:1001B000FCE5F038F8E433CF89F0A42CFCE5F03806
:1001C000CF3400CE89F0A42FFFE5F03EFEE433C922
:1001D0008DF0A42EFEE5F039CD8AF0A42FFFE5F0D6
:1001E0003EFEE43DFD33D0E0FB50070BBB000F02A9
:1001F0000355EC2CFCEF33FFEE33FEED33FD020331
:100200002D020355EC5D046005E8590470030203F8
:100210004B120316580460F6EC4860F2EC7004FDD3
:10022000FEFF22C860DB2481C85009C398600250D9
:10023000060203529850CAF582E9294B4A7005AB71
:100240008202034175F0007C1A7880C3EF9BEE9A1E
:10025000ED99400DC3EF9BFFEE9AFEED99FDE8424C
:10026000F0DC23ACF0D0E0FFD0E0FED0E0FDAB82CC
:1002700020E7101BEB60BAEC2CFCEF33FFEE33FEF3
:10028000ED33FD02032DE803F830E705C0F075F00B
:1002900000EF2FFFEE33FEED33FD40B830E7C280B4
:1002A000AA75F020800E75F010800575F0087D00AD
:1002B0007E007F003392D530D503120757EC3340D0
:1002C00010EF33FFEE33FEED33FDEC33FCD5F0EDF4
:1002D00022E5F0247EA2D513CC92E7CDCEFF22ED0D
:1002E000D2E7CD33EC3392D524814006E4FFFEFD06
:1002F000FC22FCE4CFCECDCC24E0501174FF80ED85
:10030000C3CC13CCCD13CDCE13CECF13CF0470F00E
:1003100030D5DE020757E9D2E7C933E833F892D582
:10032000EDD2E7CD33EC33FC5002B2D522EC30E70E
:10033000100FBF000C0EBE00080DBD00040BEB60DB
:1003400014A2D5EB13FCED92E7FD2274FFFCFDFE39
:10035000FF22E480F8A2D574FF13FC7D80E480EFD7
:10036000ED33EC33601004700FED547F70057402B0
:1003700092E0227404220422E42274F8CC6480CC3B
:10038000C86480C8F58204604FC3EB9FF5F0EA9E15
:1003900042F0E99D42F0E89C45F0603C501DE5824A
:1003A0005FFFE582D313CB5BCBF42B5582FB502848
:1003B0000ABA002409B9002008801DE5825BFBE52C
:1003C00082D313CF5FCFF4C3132F5582FF50090E92
:1003D000BE00050DBD00010CC3EB9FF5F0EA9E4287
:1003E000F0E99D42F0E89C45F06007CC4820E70129
:1003F000B3EC22ED33EC33600A047003BD8004ECEF
:10040000B2E7FC22F920E72824F950037907E4F445
:100410002402FB18DBFDE624FB5014E9600DE4F632
:1004200018E604F6B40A08E4F6D9F57401F60A22CF
:10043000C2D522ED33EC3392D5FA602AB4FF33ED06
:10044000C2E77BFF60067A047958E4227A04796176
:1004500020D5047A04795C224E614E002B494E4629
:10046000002D494E4600E47A08F608DAFC7B007459
:100470000722E8C0E0ECC0E0EDC0E0EEC0E0EFC075
:10048000E0EA75F010A4CAABF075F04DA42BFBE4C4
:1004900035F0FCEA2410FAEB34C5FBEC34D9FCED62
:1004A000C2E7FF75F056A4F42411C5F0F434C58FEB
:1004B000F0A42AE5F03BE43CF620E714120566D0F0
:1004C000E0FFD0E0FED0E0FDD0E0FC12020480149A
:1004D000F404120566D0E0FFD0E0FED0E0FDD0E0ED
:1004E000FC1200FBD0E0F8E6FAEDD2E7CD33EC33B6
:1004F0002482FBE4C3CF33CFCE33CECD33CD33DB39
:10050000F37B0775F00A846004F6081B0AE5F0F631
:10051000088FF0740AA4FFACF08EF0740AA42CFECD
:10052000ACF050010C8DF0740AA42CFDE435F0F60B
:1005300008DBDE7407223F8000004120000042C833
:100540000000447A0000461C400047C35000497434
:1005500024004B1896804CBEBC205A0E1BCA675311
:10056000C21C749DC5AEFB60065407601C23231299
:100570000594EB5438600912058012058F1200FBB8
:10058000ECF8EDF9EEFAEFCB22EB12058F80F15487
:100590003803241C900536FE93FC0EEE93FD0EEE00
:1005A000930ECE93FF22C0E0EFFBEEFAEDF9ECF8EC
:1005B0001200FBD0E0F5F0EFFBEEFAEDF9ECF812EB
:1005C0000796A3A3A3A3E8C0E0E9C0E0EAC0E0EB7C
:1005D000C0E0C0F01200FB1207A6A3A3A3A3120061
:1005E0000AD0F0D0E0FBD0E0FAD0E0F9D0E0F8D5C6
:1005F000F0D422E709F608DFFA8046E709F208DFBF
:10060000FA803E88828C83E709F0A3DFFA8032E328
:1006100009F608DFFA8078E309F208DFFA807088CB
:10062000828C83E309F0A3DFFA806489828A83E005
:10063000A3F608DFFA805889828A83E0A3F208DFF4
:10064000FA804C80D280FA80C680D4806980F280A3
:1006500033801080A680EA809A80A880DA80E280C9
:10066000CA803389828A83ECFAE493A3C8C582C81E
:10067000CCC583CCF0A3C8C582C8CCC583CCDFE988
:10068000DEE7800D89828A83E493A3F608DFF9EC24
:10069000FAA9F0EDFB2289828A83ECFAE0A3C8C5AF
:1006A00082C8CCC583CCF0A3C8C582C8CCC583CCD6
:1006B000DFEADEE880DB89828A83E493A3F208DF45
:1006C000F980CC88F0EF60010E4E60C388F0ED2415
:1006D00002B4040050B9F582EB2402B4040050AF18
:1006E000232345822390064373BB010689828A83B4
:1006F000E0225002E722BBFE02E32289828A83E4E1
:100700009322BB010CE58229F582E5833AF583E06B
:10071000225006E92582F8E622BBFE06E92582F88A
:10072000E222E58229F582E5833AF583E49322BB50
:10073000010689828A83F0225002F722BBFE01F370
:1007400022C5F0F8A3E028F0C5F0F8E58215827024
:10075000021583E038F022C3E49FFFE49EFEE49D8F
:10076000FDE49CFC22EB9FF5F0EA9E42F0E99D42FD
:10077000F0E89C45F022BB010789828A8302088841
:100780005005E9F802087CBBFE05E9F802089489E7
:10079000828A83020796E493FC740193FD740293AA
:1007A000FE740393FF22E493F8740193F9740293A7
:1007B000FA740393FB22F5F0C582A4C582C5F0C587
:1007C00083A42583F58322FAE6FB0808E6F925F0E1
:1007D000F618E6CA3AF622BB010DE58229F582E554
:1007E000833AF5830208A95007E92582F80208A098
:1007F000BBFE07E92582F80208B2E58229F582E509
:10080000833AF5830208BBD083D082F8E493701258
:10081000740193700DA3A393F8740193F5828883F8
:10082000E4737402936860EFA3A3A380DFE88FF002
:10083000A4CC8BF0A42CFCE98EF0A42CFC8AF0ED67
:10084000A42CFCEA8EF0A4CDA8F08BF0A42DCC381B
:1008500025F0FDE98FF0A42CCD35F0FCEB8EF0A453
:10086000FEA9F0EB8FF0A4CFC5F02ECD39FEE43C0D
:10087000FCEAA42DCE35F0FDE43CFC22E6FC08E6C3
:10088000FD08E6FE08E6FF22E0FCA3E0FDA3E0FE93
:10089000A3E0FF22E2FC08E2FD08E2FE08E2FF22FC
:1008A000E6FB08E6FA08E6F922E0FBA3E0FAA3E09B
:1008B000F922E2FB08E2FA08E2F922E493FB740170
:1008C00093FA740293F922BB011A89828A83D0F0C9
:1008D000D0E0F8D0E0F9D0E0FAD0E0FBE8C0E0C02A
:1008E000F002091F5016E9F8D083D082D0E0F9D089
:1008F000E0FAD0E0FBC082C083020916BBFE16E915
:10090000F8D083D082D0E0F9D0E0FAD0E0FBC0820A
:10091000C08302092822EBF608EAF608E9F622EB82
:10092000F0A3EAF0A3E9F022EBF208EAF208E9F218
:1009300022E5452431F8E6054522782E3007027875
:1009400031E475F0011207C70206E92000EB7F2EA3
:10095000D2008018EF540F2490D43440D4FF3004D8
:100960000BEF24BFB41A0050032461FFE546600278
:1009700015460549E5497002054830070D782EE413
:1009800075F0011207C7EF02072F02178E7403D20A
:10099000078003E4C207F5458B2E8A2F8930E4F5E2
:1009A00046F548F549E54660077F2012096C80F559
:1009B0007547FFC201C200C202C203C205C206C21D
:1009C0000812093AFF700D3007057F0012097DAF4C
:1009D00049AE4822B4255FC2D5C20412093AFF24A9
:1009E000D0B40A00501A75F00A784630D50508B61A
:1009F000FF0106C6A426F620D5047002D20380D9D2
:100A000024CFB41A00EF5004C2E5D204020C6AD21B
:100A10000180C6D20080C0D20280BCD2D580BAD2BA
:100A20000580B47F2012096C2002077401B54600CE
:100A300040F1120931FF12096C0209A5D208D20651
:100A40008095120931FB120931FA120931F94A4B2A
:100A5000700679617A0D7BFF20022EE546602A7EC2
:100A6000008E8275830012070260060EEE654770E5
:100A7000F0C2D5EBC0E0EAC0E0E9C0E0EE120CCA7B
:100A8000D0E0F9D0E0FAD0E0FB1206E9FF60AAEB73
:100A9000C0E0EAC0E0E9C0E012096CD0E02401F94E
:100AA000D0E03400FAD0E0FBE5470460DCD547D95C
:100AB0008087D20280A2120CAD60F7E54770010476
:100AC000120404A947600DE547600914F547120DAB
:100AD00054EF60F3EA30E702F404C3995077EAF484
:100AE00025470430E701E404F547800D120CAD60A2
:100AF000C1EA05472547120404EA7844F630E701C5
:100B0000E4254704D5470420050114120CCAE4C0AB
:100B1000E0120D547844E6601320E70714F612093A
:100B200054802204F6D0E014C0E07F00120954E59E
:100B300047600712094B1547800B30050312094B1C
:100B4000D0E00209A5D0E00480C5120CAD60A0E59C
:100B500047041204047844EAF6E5472005026001E0
:100B6000042404120CCA74FF04C0E0120D541209CC
:100B700054E547200502600312094BD0E0B547E871
:100B80007F4512095E7844E67F2B30E7047F2DF421
:100B900004C0E012096CD0E075F00A84C0F01209BC
:100BA00055D0E01209550209A5791080027908C2D2
:100BB00006C2088008D2D5790A8004790AC2D5E530
:100BC00047047002F547E4FAFDFEFF120931FC7B91
:100BD00008200113120931FD7B1030000A1209317F
:100BE000FE120931FF7B20EC3382D592D55013C31E
:100BF000E43000069FFFE49EFEE42001039DFDE437
:100C00009CFCE4CBF8C201EC700CCFCECDCCE82438
:100C1000F8F870F38017C3EF33FFEE33FEED33FDCA
:100C2000EC33FCEB33FB994002FB0FD8E9EB3001CE
:100C300005F8D0E0C448B201C0E00AEC4D4E4F7850
:100C4000207B0070C2EAB5470040BCC0E0120CCC6B
:100C5000D0F0D0E0200104C4C0E0C4B201C0F01262
:100C60000955D0F0D5F0EB0209A51208070A425346
:100C70000BA9580A134C0A0F420BAD4F0BB5440B8E
:100C8000B5490A28430BBB550AEC460B4A450AB640
:100C9000470D81500A172D0A1B2E0A3E2B0A1F23CF
:100CA0000A3C200D6A2A09D74800000A36E547B4F5
:100CB000FF03754706120931FC120931FD12093193
:100CC000FE120931FF783D020433790AA2D52003D0
:100CD00014300509B910020404B9080104A2D52092
:100CE00006025001042002689202B546005034C04A
:100CF000E07F203003197F30A20272067205500F88
:100D0000120D23C202C206C205C2087F30800F3016
:100D10000503E9C0E012096C300503D0E0F9D0E02A
:100D2000B546CC3005177F30B9100C12096C7F58CE
:100D30003004077F788003B9080312096C3002057C
:100D40007F2D02096C7F202008F87F2B2006F322DC
:100D5000920280CF7F00B407005005243DF8E6FFE3
:100D600022286E756C6C2900D2011209313001F80D
:100D7000C201784630D50108F60209D72D50434903
:100D8000581209312403B405004001E4900D7C930E
:100D900012095D743A12095DD203754604020BA96B
:100DA000E4F522F527F528F529F52CF52D7B0190A2
:100DB000000304F0A37400F0A37400F090003CEB77
:100DC000F0A37400F0A37424F0783F7C007D017BD5
:100DD000FF7A1879577E007F0A1206C37B007A00DB
:100DE00079FC1207768F268E258D248C231217B559
:100DF000D2AF43E3407B9B7DFFE4FF1216D77531F2
:100E0000FF75321875335385263785253685243589
:100E10008523347B017A00792412098D90003CE00F
:100E2000FBA3E0FAA3E0F91206E9F52AFF3395E007
:100E3000FEEF64304E7003752A3190003DE475F08A
:100E40000112074190003CE0FBA3E0FAA3E0F91295
:100E500006E9F52B90003DE475F00112074175316C
:100E6000007532007533007534107B007A00792AE2
:100E7000121195900003E0FBA3E0FAA3E0F9EF1252
:100E8000072F900004E475F00112074190003CE048
:100E9000FBA3E0FAA3E0F91206E9F52AFF3395E097
:100EA000FEEF64304E7003752A3190003DE475F01A
:100EB0000112074190003CE0FBA3E0FAA3E0F91225
:100EC00006E9F52B90003DE475F0011207417531FC
:100ED000007532007533007534107B007A00792A72
:100EE000121195900003E0FBA3E0FAA3E0F9EF12E2
:100EF000072F900004E475F00112074190003CE0D8
:100F0000FBA3E0FAA3E0F91206E9F52AFF3395E026
:100F1000FEEF64304E7003752A3190003DE475F0A9
:100F20000112074190003CE0FBA3E0FAA3E0F912B4
:100F300006E9F52B90003DE475F00112074175318B
:100F4000007532007533007534107B007A00792A01
:100F5000121195900003E0FBA3E0FAA3E0F9EF1271
:100F6000072F900004E475F00112074190003CE067
:100F7000FBA3E0FAA3E0F91206E9F52AFF3395E0B6
:100F8000FEC3EF9431EE648094805003752A329052
:100F9000003DE475F00112074190003CE0FBA3E046
:100FA000FAA3E0F91206E9F52B90003DE475F00193
:100FB0001207417531007532007533007534107BAE
:100FC000007A00792A121195900003E0FBA3E0FA61
:100FD000A3E0F9EF12072FC281C295C28612183022
:100FE000743F2522F582E43400F583EFF0743F2549
:100FF00022F582E43400F583E0640A600302119074
:1010000090003FE06401705C900000E0FF900041C0
:10101000E06F7050900001E0FF900042E06F70447C
:10102000900002E0FF900043E06F7038900003E012
:10103000FF900044E0B5072CA3E075270075280059
:10104000F529900006E4F0A3F0A37480F0A3E4F087
:10105000A3F0A304F07B00A314F0A3F0A374A0F00A
:101060000B12172790003FE06402704EA3E0FD656D
:10107000297002E5286004EDF4703F900041E075AE
:101080002C00F52D30E004D2818002C28190004115
:10109000E0FF30E104D2958002C295EF30E204D245
:1010A000868002C286900006E4F0A3F0A37480F06C
:1010B000A3E4F0A3F0740212171A90003FE0640357
:1010C000705DE52D452C7057E5294528705120812C
:1010D00006209503308648900006E4F0A3F0A37440
:1010E00080F0900000E0F9900009E4F0A3F0A3E99B
:1010F000F0900001E0F990000CE4F0A3F0A3E9F017
:10110000900002E0F990000FE4F0A3F0A3E9F09062
:101110000003E0F9900012E4F0A3F0E912171A902E
:10112000003FE06408703DA3E0FFF46009E5296F2B
:101130007002E528702E900006E4F0A3F0A37480FE
:10114000F0A3E4F0A3F0A37408F0A3E4F0A3F0A3E9
:1011500074A0F0900041E0FFA3E0FDA3E0FB1216B5
:10116000D712172590003FE06409701EE529452835
:101170007018FA900006CAF0A3EAF0A37480F0A3F6
:10118000E4F0A3F0A3740912171BE4F522020FDDAB
:101190000522020FDD8B2E8A2F8930E4F53AF539CE
:1011A000F538F537F535F536E5324533453160121A
:1011B000EBC0E0EAC0E0E9C0E0AB31AA32A93312EB
:1011C00008C7AB2E0530E530AA2F7002052F14F9A1
:1011D0001206E9F53BC394094007E53BD3940D4063
:1011E000E1E53B642060DBE53BB42D05433603803D
:1011F00016E53BB42B05433601800C74FF2530F512
:101200003074FF352FF52FE53460046410703FAB68
:101210002EAA2FA9301206E964306009E534702E39
:1012200075340A8029900001120702FF6478600477
:10123000EFB4581343360175341074022530F5307D
:10124000E4352FF52F8007E5347003753408AB2E95
:101250000530E530AA2F7002052F14F91206E9F5C2
:101260003BC39461400AE53BD3947A5003533BDF80
:1012700074D0253BF53BC3940A400CE53B941140E8
:101280005374F9253BF53BE53BC395345046433653
:1012900001AF347E00E4FCFDAB3AAA39A938A83787
:1012A00012082DC8ECC8C9EDC9CAEECACBEFCBE411
:1012B000FCFDFEEB253BF53AEE3AF539ED39F53814
:1012C000EC38F537AF3AAE39AD38FC3350804336A1
:1012D0000402124EE53620E006E4FFFEFDFC22E5A6
:1012E0003245334531601EAB2EE53024FFF9E52F42
:1012F00034FFFAEBC0E0EAC0E0E9C0E0AB31AA326B
:10130000A9331208C7E53630E21230E107E4FFFEE8
:10131000FD7C802274FFFFFEFD7C7F22E536AF3A24
:10132000AE39AD38AC3730E103020757223E924860
:10133000DA3ECCCCCD3F2AAAAB400000003F800073
:10134000003F9837F03FB504F33FD744FC3E31727D
:10135000173EB172173F0515913EDE5BD9D2008072
:1013600002C200EDD2E7F8CD33EC3304700BBD8040
:101370000592D502035502034B40FBD31460F2F5EE
:10138000F07C3FEE7A00C39496C8948B40230AC841
:101390009469C8941A401A0AC89468C8941F4011E6
:1013A0000AC8945AC89425400805F07A00CDC2E7CF
:1013B000CDC0F08C3C8D3D8E3E8F3FEA2323C0E0B4
:1013C000243DF582E43413F5831207A612000AECDB
:1013D000C0E0EDC0E0EEC0E0EFC0E0120796A83C30
:1013E000A93DAA3EAB3F120006D0E0FBD0E0FAD008
:1013F000E0F9D0E0B2E7F81202048C3C8D3D8E3E5D
:101400008F3F90132D74031205A6A83CA93DAA3E58
:10141000AB3F1200FBD0E0600F2449F582E43413A7
:10142000F5831207A612000A8C3C8D3D8E3E8F3F3D
:10143000D0E0C3947FFDE49400FC1202A67B187AEE
:10144000727931783F1200FBA83CA93DAA3EAB3F20
:1014500012000A30000B7BD97A5B79DE783E1200ED
:10146000FB228F358E348D338C32E4FFFE7D807C01
:101470003FAB35AA34A933A83212037A7009AF35CD
:10148000AE34AD33AC3222AF35AE34AD33AC321204
:101490000360FBAF39AE38AD37AC36120360FFBF27
:1014A0000108E4FFFE7D807C3F22EF64046022EBB4
:1014B0006404601DBB0127E4FFFEFDFCAB39AA38C4
:1014C000A937A83612037A60084006E4FFFEFDFC47
:1014D0002274FFF539F538F537F536021570E4F565
:1014E0003AF53BFFFEFDFCAB35AA34A933A8321216
:1014F000037A504BAF39AE38AD37AC361202DF8EBF
:101500003A8F3BAC3AAD3BEC1202A6C8ECC8C9ED31
:10151000C9CAEECACBEFCBAF39AE38AD37AC361255
:101520000006E4FBFAF9F812037A70A5AF35AE3481
:10153000AD33AC321203F38F358E348D338C32AF32
:1015400035AE34AD33AC32121361AB39AA38A9379A
:10155000A8361200FB1215B18F398E388D378C36B4
:10156000E53B30E00B1203F38F398E388D378C3624
:10157000AF39AE38AD37AC362233DA929E35B16032
:1015800011377FE5FE392184893AAEC3FF3C1D95B2
:101590005B3D6358473E75FDF03F3172183F800058
:1015A00000C2D502035502034BBD80FA50F302037B
:1015B00052ED33EC330460F17B3B7AAA79B8783F83
:1015C0001200FBED33EC3392D5247B5011A2D57081
:1015D000DB500BED448024045004A2D580CEEFFBF9
:1015E000EEFAEDF9ECF81202DFEFF582F404FC12EA
:1015F00002AB12000AC08290157974091205B5ED8C
:1016000033CC33D0F092D525F0A2D57001C313CCE2
:1016100013FD22AF3012161FAF3112161FAF05EFA8
:1016200030E707D2901217E380031217F5EF30E688
:1016300007D2901217E380031217F5EF30E507D2B7
:10164000901217E380031217F5EF30E407D29012DF
:1016500017E380031217F5EF30E307D2901217E378
:1016600080031217F5EF30E207D2901217E38003E0
:101670001217F5EF30E107D2901217E3800312172B
:10168000F5EF30E005D2900217E31217F5227597B7
:10169000A5E4F531F530F52FF52EE47FCCFEFDFC09
:1016A000AB31AA30A92FA82EC3120765501800E548
:1016B000312401F531E43530F530E4352FF52FE4F0
:1016C000352EF52E80D4A2AF9200C2AF7597DE758D
:1016D00097ADA20092AF228F2E8B2FAE05AF0612D0
:1016E000175A8F30AF2E12175A8F31AF2F12175A49
:1016F000AD07E4FBFA1216130BBB00010AEB6409F9
:101700004A70F2121806E4FAFB1216130BBB000122
:101710000AEB64094A70F2021806A3F0A3E4F0A3EE
:10172000F0A374A0F07B017A0079068B2E8A2F89B2
:1017300030E4FDFCAB2EAA2FA9308D828C8374037C
:101740001207B61207D7AF011218381218300DBDA4
:1017500000010CED64034C70DB22AC07E41202AB19
:10176000E4FBFA797F78431202047433F539F538D3
:10177000F537753640121462E4FBFA797F7843122C
:1017800000FBE4FBFAF9783F12000A0202DFEFB433
:101790000A07740D121799740A309811A899B81392
:1017A0000CC2983098FDA899C298B811F63099FDEE
:1017B000C299F5992212168E12183D12184112186C
:1017C000451218491217D012182612184D02185136
:1017D000AF885388AF758D96EF5440FEEF54104E8E
:1017E000428822000000000000000000000000000D
:1017F0000000C29022D2900000000000000000C251
:101800009000000000227F107E27C290EF1FAC06E0
:1018100070011E4C70F622121852787FE4F6D8FD43
:10182000758149020DA0758E087589204388402274
:101830003098FDC298AF99228F99C2992275A41051
:101840002275A5012275E10122E4F5A92243981031
:10185000222222256C580000000000000000000039
:011860000087
:00000001FF
