:020000040000FA
:10000000021890121A0412001E121BD4121BCD12D9
:100010001BD8121B68121BC3121BE0021BDC75A449
:1000200010222202199A02036EE86480F8E933E88C
:100030003360110460F0ED33EC337009E8FCE9FD46
:10004000EAFEEBFF220460DED3EB9FEA9EE99DE827
:10005000C2E78CF0C2F795F0400CE8CCF8E9CDF996
:10006000EACEFAEBCFFB12033985D0F058047003C7
:1000700020D5B3E80470075002B2D502037892D5B8
:10008000EC0460F7E4CCC0E0C398F8603B941860DF
:1000900008400DD0E0FB020350E4FBFAC9FC8028C5
:1000A000E830E406E4C9FBE4CAFCE830E305E4C94F
:1000B000CACBFCE854076010F8C3E913F9EA13FA55
:1000C000EB13FBEC13FCD8F130F52FC3E49CFCEFF1
:1000D0009BFFEE9AFEED99FDD0E0FBEF4E4D4C708C
:1000E0001222DB03020375EC2CFCEF33FFEE33FE30
:1000F000ED33FDED30E7EB020350EF2BFFEE3AFE60
:10010000ED39FDD0E0FB50130BBB0003020378ED8B
:1001100013FDEE13FEEF13FFEC13FC020350EC4D46
:100120006011E8497017ED33EC3304600DE4FCFF17
:10013000FEFD22E933E8330470F802036E1203393E
:1001400058046009E4CC2481500628500902037841
:10015000284003020375C0E0EB4A7044B98006D022
:10016000E0FB020364EF4E701CBD8008EBFFEAFE6B
:10017000E9FD80EBE98DF0A4FEE5F0020207E9CD90
:10018000F9EAFEEBFFEF89F0A4FCE5F0CE89F0A4DC
:100190002EFFE435F0CD89F0A42DFEE435F0806724
:1001A000EF4E7005BD80D780C3EF8BF0A4ACF0EEAE
:1001B0008BF0A42CFCE435F0F8EF8AF0A42CE5F0E9
:1001C00038FCE433CB8DF0A42CFCE5F03BF8EE8A50
:1001D000F0A42CFCE5F038F8E433CF89F0A42CFC33
:1001E000E5F038CF3400CE89F0A42FFFE5F03EFED5
:1001F000E433C98DF0A42EFEE5F039CD8AF0A42FAA
:10020000FFE5F03EFEE43DFD33D0E0FB50070BBBC5
:10021000000F020378EC2CFCEF33FFEE33FEED33DE
:10022000FD020350020378EC5D046005E859047098
:100230000302036E120339580460F6EC4860F2ECD6
:100240007004FDFEFF22C860DB2481C85009C398FA
:10025000600250060203759850CAF582E9294B4A9C
:100260007005AB8202036475F0007C1A7880C3EFDE
:100270009BEE9AED99400DC3EF9BFFEE9AFEED9930
:10028000FDE842F0DC23ACF0D0E0FFD0E0FED0E0AF
:10029000FDAB8220E7101BEB60BAEC2CFCEF33FFC8
:1002A000EE33FEED33FD020350E803F830E705C0FE
:1002B000F075F000EF2FFFEE33FEED33FD40B83068
:1002C000E7C280AA75F020800E75F010800575F0E9
:1002D000087D007E007F003392D530D50312084898
:1002E000EC334010EF33FFEE33FEED33FDEC33FC27
:1002F000D5F0ED22E5F0247EA2D513CC92E7CDCE49
:10030000FF22EDD2E7CD33EC3392D524814006E4D1
:10031000FFFEFDFC22FCE4CFCECDCC24E0501174D6
:10032000FF80EDC3CC13CCCD13CDCE13CECF13CFE6
:100330000470F030D5DE020848E9D2E7C933E8336B
:10034000F892D5EDD2E7CD33EC33FC5002B2D52292
:10035000EC30E7100FBF000C0EBE00080DBD00040E
:100360000BEB6014A2D5EB13FCED92E7FD2274FFBA
:10037000FCFDFEFF22E480F8A2D574FF13FC7D8013
:10038000E480EFED33EC33601004700FED547F70B8
:1003900005740292E0227404220422E42274F8CC50
:1003A0006480CCC86480C8F58204604FC3EB9FF5BD
:1003B000F0EA9E42F0E99D42F0E89C45F0603C5036
:1003C0001DE5825FFFE582D313CB5BCBF42B558217
:1003D000FB50280ABA002409B9002008801DE582D4
:1003E0005BFBE582D313CF5FCFF4C3132F5582FF9E
:1003F00050090EBE00050DBD00010CC3EB9FF5F0CA
:10040000EA9E42F0E99D42F0E89C45F06007CC4846
:1004100020E701B3EC22ED33EC33600A047003BD36
:100420008004ECB2E7FC22F920E72824F950037994
:1004300007E4F42402FB18DBFDE624FB5014E9601A
:100440000DE4F618E604F6B40A08E4F6D9F57401EA
:10045000F60A22C2D522ED33EC3392D5FA602AB4E3
:10046000FF33EDC2E77BFF60067A04797BE4227AF2
:1004700004798420D5047A04797F224E614E002BC2
:10048000494E46002D494E4600E47A08F608DAFC4B
:100490007B00740722E8C0E0ECC0E0EDC0E0EEC0F5
:1004A000E0EFC0E0EA75F010A4CAABF075F04DA41F
:1004B0002BFBE435F0FCEA2410FAEB34C5FBEC34FA
:1004C000D9FCEDC2E7FF75F056A4F42411C5F0F491
:1004D00034C58FF0A42AE5F03BE43CF620E7141283
:1004E0000589D0E0FFD0E0FED0E0FDD0E0FC1202B4
:1004F000278014F404120589D0E0FFD0E0FED0E09C
:10050000FDD0E0FC12011ED0E0F8E6FAEDD2E7CD16
:1005100033EC332482FBE4C3CF33CFCE33CECD33A1
:10052000CD33DBF37B0775F00A846004F6081B0A01
:10053000E5F0F6088FF0740AA4FFACF08EF0740AB0
:10054000A42CFEACF050010C8DF0740AA42CFDE438
:1005500035F0F608DBDE7407223F80000041200002
:100560000042C80000447A0000461C400047C350C7
:1005700000497424004B1896804CBEBC205A0E1BB8
:10058000CA6753C21C749DC5AEFB60065407601C4D
:1005900023231205B7EB543860091205A31205B2E4
:1005A00012011EECF8EDF9EEFAEFCB22EB1205B2D8
:1005B00080F1543803241C900559FE93FC0EEE93F1
:1005C000FD0EEE930ECE93FF22C0E0EFFBEEFAEDB0
:1005D000F9ECF812011ED0E0F5F0EFFBEEFAEDF9C0
:1005E000ECF8120887A3A3A3A3E8C0E0E9C0E0EAFF
:1005F000C0E0EBC0E0C0F012011E120897A3A3A355
:10060000A312002DD0F0D0E0FBD0E0FAD0E0F9D07A
:10061000E0F8D5F0D422E709F608DFFA8046E709CA
:10062000F208DFFA803E88828C83E709F0A3DFFAC4
:100630008032E309F608DFFA8078E309F208DFFA8E
:10064000807088828C83E309F0A3DFFA806489825A
:100650008A83E0A3F608DFFA805889828A83E0A3C0
:10066000F208DFFA804C80D280FA80C680D480699C
:1006700080F28033801080A680EA809A80A880DA99
:1006800080E280CA803389828A83ECFAE493A3C82B
:10069000C582C8CCC583CCF0A3C8C582C8CCC583ED
:1006A000CCDFE9DEE7800D89828A83E493A3F60834
:1006B000DFF9ECFAA9F0EDFB2289828A83ECFAE0FB
:1006C000A3C8C582C8CCC583CCF0A3C8C582C8CC9A
:1006D000C583CCDFEADEE880DB89828A83E493A3EA
:1006E000F208DFF980CC88F0EF60010E4E60C3881D
:1006F000F0ED2402B4040050B9F582EB2402B404F6
:100700000050AF232345822390066673BB01068900
:10071000828A83E0225002E722BBFE02E322898222
:100720008A83E49322BB010CE58229F582E5833AB2
:10073000F583E0225006E92582F8E622BBFE06E9B1
:100740002582F8E222E58229F582E5833AF583E401
:100750009322BB010689828A83F0225002F722BBD2
:10076000FE01F322C5F0F8A3E028F0C5F0F8E58219
:10077000158270021583E038F02275F0087582004A
:10078000EF2FFFEE33FECD33CDCC33CCC58233C556
:10079000829BED9AEC99E58298400CF582EE9BFEE7
:1007A000ED9AFDEC99FC0FD5F0D6E4CEFBE4CDFA42
:1007B000E4CCF9A88222B800C1B90059BA002DECE6
:1007C0008BF084CFCECDFCE5F0CBF97818EF2FFF7E
:1007D000EE33FEED33FDEC33FCEB33FB10D7039926
:1007E0004004EB99FB0FD8E5E4F9FA227818EF2FD3
:1007F000FFEE33FEED33FDEC33FCC933C910D705F2
:100800009BE99A4007EC9BFCE99AF90FD8E0E4C910
:10081000FAE4CCFB2275F010EF2FFFEE33FEED3340
:10082000FDCC33CCC833C810D7079BEC9AE899406D
:100830000AED9BFDEC9AFCE899F80FD5F0DAE4CDCF
:10084000FBE4CCFAE4C8F922C3E49FFFE49EFEE493
:100850009DFDE49CFC22EB9FF5F0EA9E42F0E99DB1
:1008600042F0E89C45F022BB010789828A83020995
:10087000585005E9F802094CBBFE05E9F802096485
:1008800089828A83020887E493FC740193FD7402D1
:1008900093FE740393FF22E493F8740193F97402B6
:1008A00093FA740393FB22FAE6FB0808E6F925F0B5
:1008B000F618E6CA3AF622BB010789828A83020942
:1008C000795005E9F8020970BBFE05E9F8020982D2
:1008D00089828A8302098BD083D082F8E4937012D4
:1008E000740193700DA3A393F8740193F582888328
:1008F000E4737402936860EFA3A3A380DFE88FF032
:10090000A4CC8BF0A42CFCE98EF0A42CFC8AF0ED96
:10091000A42CFCEA8EF0A4CDA8F08BF0A42DCC384A
:1009200025F0FDE98FF0A42CCD35F0FCEB8EF0A482
:10093000FEA9F0EB8FF0A4CFC5F02ECD39FEE43C3C
:10094000FCEAA42DCE35F0FDE43CFC22E6FC08E6F2
:10095000FD08E6FE08E6FF22E0FCA3E0FDA3E0FEC2
:10096000A3E0FF22E2FC08E2FD08E2FE08E2FF222B
:10097000E6FB08E6FA08E6F922E0FBA3E0FAA3E0CA
:10098000F922E2FB08E2FA08E2F922E493FB74019F
:1009900093FA740293F922BB011A89828A83D0F0F8
:1009A000D0E0F8D0E0F9D0E0FAD0E0FBE8C0E0C059
:1009B000F00209EF5016E9F8D083D082D0E0F9D0E8
:1009C000E0FAD0E0FBC082C0830209E6BBFE16E974
:1009D000F8D083D082D0E0F9D0E0FAD0E0FBC0823A
:1009E000C0830209F822EBF608EAF608E9F622EBE2
:1009F000F0A3EAF0A3E9F022EBF208EAF208E9F248
:100A000022E5462432F8E6054622782F30070278A0
:100A100032E475F0011208A702070C2000EB7F2ECC
:100A2000D2008018EF540F2490D43440D4FF300407
:100A30000BEF24BFB41A0050032461FFE5476002A6
:100A40001547054AE54A7002054930070D782FE43D
:100A500075F0011208A7EF020752021B417403D27E
:100A6000078003E4C207F5468B2F8A308931E4F50D
:100A700047F549F54AE54760077F20120A3C80F5B3
:100A80007548FFC201C200C202C203C205C206C24B
:100A900008120A0AFF700D3007057F00120A4DAFD9
:100AA0004AAE4922B4255FC2D5C204120A0AFF2405
:100AB000D0B40A00501A75F00A784730D50508B648
:100AC000FF0106C6A426F620D5047002D20380D901
:100AD00024CFB41A00EF5004C2E5D204020D3AD27A
:100AE0000180C6D20080C0D20280BCD2D580BAD2EA
:100AF0000580B47F20120A3C2002077401B547002C
:100B000040F1120A01FF120A3C020A75D208D2060D
:100B10008095120A01FB120A01FA120A01F94A4BE6
:100B2000700679317A0E7BFF20022EE547602A7E1F
:100B3000008E8275830012072560060EEE654870F0
:100B4000F0C2D5EBC0E0EAC0E0E9C0E0EE120D9AD9
:100B5000D0E0F9D0E0FAD0E0FB12070CFF60AAEB7E
:100B6000C0E0EAC0E0E9C0E0120A3CD0E02401F9AC
:100B7000D0E03400FAD0E0FBE5480460DCD548D989
:100B80008087D20280A2120D7D60F7E548700104D3
:100B9000120427A948600DE548600914F548120EB3
:100BA00024EF60F3EA30E702F404C3995077EAF4E3
:100BB00025480430E701E404F548800D120D7D60FE
:100BC000C1EA05482548120427EA7845F630E701CE
:100BD000E4254804D5480420050114120D9AE4C008
:100BE000E0120E247845E6601320E70714F6120A97
:100BF00024802204F6D0E014C0E07F00120A24E52D
:100C0000486007120A1B1548800B300503120A1BA7
:100C1000D0E0020A75D0E00480C5120D7D60A0E529
:100C200048041204277845EAF6E5482005026001E9
:100C3000042404120D9A74FF04C0E0120E24120A58
:100C400024E5482005026003120A1BD0E0B548E8FD
:100C50007F45120A2E7845E67F2B30E7047F2DF47E
:100C600004C0E0120A3CD0E075F00A84C0F0120A19
:100C700025D0E0120A25020A75791080027908C28F
:100C800006C2088008D2D5790A8004790AC2D5E55F
:100C900048047002F548E4FAFDFEFF120A01FC7BED
:100CA00008200113120A01FD7B1030000A120A010C
:100CB000FE120A01FF7B20EC3382D592D55013C37C
:100CC000E43000069FFFE49EFEE42001039DFDE466
:100CD0009CFCE4CBF8C201EC700CCFCECDCCE82468
:100CE000F8F870F38017C3EF33FFEE33FEED33FDFA
:100CF000EC33FCEB33FB994002FB0FD8E9EB3001FE
:100D000005F8D0E0C448B201C0E00AEC4D4E4F787F
:100D1000207B0070C2EAB5480040BCC0E0120D9CC8
:100D2000D0F0D0E0200104C4C0E0C4B201C0F01291
:100D30000A25D0F0D5F0EB020A751208D70B125332
:100D40000C79580AE34C0ADF420C7D4F0C85440CA9
:100D500085490AF8430C8B550BBC460C1A450B868B
:100D6000470E51500AE72D0AEB2E0B0E2B0AEF23EC
:100D70000B0C200E3A2A0AA74800000B06E548B4DF
:100D8000FF03754806120A01FC120A01FD120A014E
:100D9000FE120A01FF783E020456790AA2D520030A
:100DA00014300509B910020404B9080104A2D520C1
:100DB00006025001042002689202B547005034C078
:100DC000E07F203003197F30A20272067205500FB7
:100DD000120DF3C202C206C205C2087F30800F3076
:100DE0000503E9C0E0120A3C300503D0E0F9D0E089
:100DF000B547CC3005177F30B9100C120A3C7F582C
:100E00003004077F788003B90803120A3C300205DA
:100E10007F2D020A3C7F202008F87F2B2006F3223A
:100E2000920280CF7F00B407005005243EF8E6FF11
:100E300022286E756C6C2900D201120A013001F86B
:100E4000C201784730D50108F6020AA72D50434960
:100E500058120A012403B405004001E4900E4C939B
:100E6000120A2D743A120A2DD203754704020C7926
:100E7000E4F522F527F528F529F52CF52DF52E7B3F
:100E80000190007B04F0A37400F0A37478F090004C
:100E9000B4EBF0A37400F0A3749CF078B77C007DF1
:100EA000017BFF7A1B79E87E007F0A1206E67B0051
:100EB0007A0079FC1208678F268E258D248C2312E8
:100EC0000003D2AF43E3407F007EC27D017C00126D
:100ED00015F17B337D447F44121A917532FF7533CF
:100EE0001B7534E4852638852537852436852335DA
:100EF0007B017A00799C120A5D9000B4E0FBA3E0CC
:100F0000FAA3E0F912070CF52AFF3395E0FEEF642F
:100F1000304E7003752A319000B5E475F001120768
:100F2000649000B4E0FBA3E0FAA3E0F912070CF52B
:100F30002B9000B5E475F00112076475320075332B
:100F4000007534007535107B007A00792A12120D75
:100F500090007BE0FBA3E0FAA3E0F9EF12075290C8
:100F6000007CE475F0011207649000B4E0FBA3E09C
:100F7000FAA3E0F912070CF52AFF3395E0FEEF64BF
:100F8000304E7003752A319000B5E475F0011207F8
:100F9000649000B4E0FBA3E0FAA3E0F912070CF5BB
:100FA0002B9000B5E475F0011207647532007533BB
:100FB000007534007535107B007A00792A12120D05
:100FC00090007BE0FBA3E0FAA3E0F9EF1207529058
:100FD000007CE475F0011207649000B4E0FBA3E02C
:100FE000FAA3E0F912070CF52AFF3395E0FEEF644F
:100FF000304E7003752A319000B5E475F001120788
:10100000649000B4E0FBA3E0FAA3E0F912070CF54A
:101010002B9000B5E475F00112076475320075334A
:10102000007534007535107B007A00792A12120D94
:1010300090007BE0FBA3E0FAA3E0F9EF12075290E7
:10104000007CE475F0011207649000B4E0FBA3E0BB
:10105000FAA3E0F912070CF52AFF3395E0FEC3EF7F
:101060009431EE648094805003752A329000B5E488
:1010700075F0011207649000B4E0FBA3E0FAA3E06E
:10108000F912070CF52B9000B5E475F00112076416
:101090007532007533007534007535107B007A00A9
:1010A000792A12120D90007BE0FBA3E0FAA3E0F98D
:1010B000EF120752C281C295C286C200121AD450E2
:1010C000F9121B9074B72522F582E43400F583EF02
:1010D000F074B72522F582E43400F583E0640A60F9
:1010E000030212089000B7E064017033900078E0CA
:1010F000FF9000B9E06F7027900079E0FF9000BA90
:10110000E06F701B90007AE0FF9000BBE06F700F03
:101110009000BDE0752700752800F5291216B990DA
:1011200000B7E06402703FA3E0FD65297002E52886
:101130006004EDF470309000B9E0752C00752D005E
:10114000F52E30E004D2818002C2819000B9E0FF28
:1011500030E104D2958002C295EF30E204D286805D
:1011600002C2861216B99000B7E064037053E52EF0
:10117000452D704D20810620950330864490007ED9
:10118000E4F0A3F0A37480F0900078E0F99000817F
:10119000E4F0A3F0A3E9F0900079E0F9900084E492
:1011A000F0A3F0A3E9F090007AE0F9900087E4F072
:1011B000A3F0A3E9F090007BE0F990008AE4121616
:1011C000CE9000B7E064087020A3E0FFF46009E56A
:1011D000296F7002E52870111216B99000B9E0FF6E
:1011E000A3E0FDA3E0FB121A919000B7E064097040
:1011F00011E5294528700BFA90007ECAF0A3EA1287
:1012000016BFE4F5220210BA05220210BA8B2F8A0B
:10121000308931E4F53BF53AF539F538F536F537EF
:10122000E533453445326012EBC0E0EAC0E0E9C086
:10123000E0AB32AA33A934120997AB2F0531E5315F
:10124000AA307002053014F912070CF53CC394095A
:101250004007E53CD3940D40E1E53C642060DBE5CC
:101260003CB42D054337038016E53CB42B054337CA
:1012700001800C74FF2531F53174FF3530F530E510
:101280003560046410703FAB2FAA30A93112070CEF
:1012900064306009E535702E75350A8029900001AB
:1012A000120725FF64786004EFB4581343370175C3
:1012B000351074022531F531E43530F5308007E51D
:1012C000357003753508AB2F0531E531AA30700252
:1012D000053014F912070CF53CC39461400AE53C53
:1012E000D3947A5003533CDF74D0253CF53CC3942F
:1012F0000A400CE53C9411405374F9253CF53CE55B
:101300003CC395355046433701AF357E00E4FCFDC4
:10131000AB3BAA3AA939A8381208FDC8ECC8C9EDF8
:10132000C9CAEECACBEFCBE4FCFDFEEB253CF53B96
:10133000EE3AF53AED39F539EC38F538AF3BAE3ADF
:10134000AD39FC3350804337040212C6E53720E044
:1013500006E4FFFEFDFC22E53345344532601EAB5A
:101360002FE53124FFF9E53034FFFAEBC0E0EAC0A5
:10137000E0E9C0E0AB32AA33A934120997E537306F
:10138000E21230E107E4FFFEFD7C802274FFFFFEE5
:10139000FD7C7F22E537AF3BAE3AAD39AC3830E16A
:1013A00003020848223E9248DA3ECCCCCD3F2AAA1E
:1013B000AB400000003F8000003F9837F03FB5048D
:1013C000F33FD744FC3E3172173EB172173F05150B
:1013D000913EDE5BD9D2008002C200EDD2E7F8CDAB
:1013E00033EC3304700BBD800592D5020378020301
:1013F0006E40FBD31460F2F5F07C3FEE7A00C394AC
:1014000096C8948B40230AC89469C8941A401A0A53
:10141000C89468C8941F40110AC8945AC8942540BB
:101420000805F07A00CDC2E7CDC0F08C3D8D3E8E30
:101430003F8F40EA2323C0E024B5F582E43413F55E
:101440008312089712002DECC0E0EDC0E0EEC0E082
:10145000EFC0E0120887A83DA93EAA3FAB401200AA
:1014600029D0E0FBD0E0FAD0E0F9D0E0B2E7F81202
:1014700002278C3D8D3E8E3F8F409013A574031242
:1014800005C9A83DA93EAA3FAB4012011ED0E060AD
:101490000F24C1F582E43413F58312089712002D4E
:1014A0008C3D8D3E8E3F8F40D0E0C3947FFDE49411
:1014B00000FC1202C97B187A727931783F12011E42
:1014C000A83DA93EAA3FAB4012002D30000B7BD9AE
:1014D0007A5B79DE783E12011E228F368E358D348E
:1014E0008C33E4FFFE7D807C3FAB36AA35A934A85F
:1014F0003312039D7009AF36AE35AD34AC3322AF35
:1015000036AE35AD34AC33120383FBAF3AAE39ADF2
:1015100038AC37120383FFBF0108E4FFFE7D807CF7
:101520003F22EF64046022EB6404601DBB0127E4EA
:10153000FFFEFDFCAB3AAA39A938A83712039D601B
:10154000084006E4FFFEFDFC2274FFF53AF539F58C
:1015500038F5370215E8E4F53BF53CFFFEFDFCAB42
:1015600036AA35A934A83312039D504BAF3AAE3991
:10157000AD38AC371203028E3B8F3CAC3BAD3CEC3C
:101580001202C9C8ECC8C9EDC9CAEECACBEFCBAFCD
:101590003AAE39AD38AC37120029E4FBFAF9F8124B
:1015A000039D70A5AF36AE35AD34AC331204168F43
:1015B000368E358D348C33AF36AE35AD34AC331218
:1015C00013D9AB3AAA39A938A83712011E121796B7
:1015D0008F3A8E398D388C37E53C30E00B1204168B
:1015E0008F3A8E398D388C37AF3AAE39AD38AC374B
:1015F000228F328E318D308C2FE49000C1F0A30405
:10160000F0300B030216B8E4FF7EE1FDFCAB32AA1A
:1016100031A930A82FC31208565019E4FF7E4BFDA4
:10162000FCA82FC31208569000C25005740CF0801D
:10163000037404F09000C2E0FBE4FAF9F87F207E26
:10164000D77D757C01121A4DAB32AA31A930A82F73
:101650001207B6E47B02FAF9F81207B6EFF4049029
:1016600000C1F043F13043A41053A4DF4380205362
:10167000D4CF43E1015388BF538EF7A3E0FF7E0030
:1016800064017005438E088014EF64044E700543B6
:101690008E018009EF640C4E7003538EFE43892047
:1016A0009000C1E0FFF58B8F8D4388404398104335
:1016B0009820D2AFD2ACD20B2290007EE4F0A3F0FF
:1016C000A37480F0A3E4F0A3F0A3F0F9A3C9F0A3FE
:1016D000F0A3E9F0A3E4F0A3F0A3740AF07B017A8D
:1016E00000797E8B2F8A308931E4FFFEFD300A18A5
:1016F000E58830E613308FFDC28F0FBF00010ED397
:10170000EF9400EE940940E5AB2FAA30A9311208FE
:10171000B7EA494B7006EDC3950C503AAF08D3EFCA
:101720009427748094804007D20AD299200AFDAB96
:101730002FAA30A9311208B7AE0874502EF582E4F2
:101740003400F583E9F0050874032531F531E435FB
:1017500030F5300D80B2E4F50CD20AD2992233DA9A
:10176000929E35B16011377FE5FE392184893AAE0A
:10177000C3FF3C1D955B3D6358473E75FDF03F310F
:1017800072183F800000C2D502037802036EBD804C
:10179000FA50F3020375ED33EC330460F17B3B7ACE
:1017A000AA79B8783F12011EED33EC3392D5247B31
:1017B0005011A2D570DB500BED448024045004A2DC
:1017C000D580CEEFFBEEFAEDF9ECF8120302EFF55F
:1017D00082F404FC1202CE12002DC08290175E74B7
:1017E000091205D8ED33CC33D0F092D525F0A2D52F
:1017F0007001C313CC13FD226028005000000000CC
:1018000000000000000000000000000000000000D8
:1018100000000000000000000000000000000000C8
:101820000000000060500000000000000000000008
:1018300000000000000000000000000000000000A8
:101840000000000000000000000000000000000098
:101850000000000000000000000000000000000088
:101860000000000000000000000000000000000078
:101870000000000000000000010A00010800010B48
:1018800000010900C109C10AC10C010C00C10B0013
:10189000120022787FE4F6D8FD75814A0218DA0238
:1018A0000E70E493A3F8E493A34003F68001F208DA
:1018B000DFF48029E493A3F85407240CC8C333C48D
:1018C000540F4420C8834004F456800146F6DFE4F8
:1018D000800B01020408102040809017F8E47E017C
:1018E0009360BCA3FF543F30E509541FFEE493A36B
:1018F00060010ECF54C025E060A840B8E493A3FA7D
:10190000E493A3F8E493A3C8C582C8CAC583CAF008
:10191000A3C8C582C8CAC583CADFE9DEE780BEAFF7
:101920003112192BAF3212192BAF05EF30E707D266
:1019300090121B7E8003121BA1EF30E607D290129B
:101940001B7E8003121BA1EF30E507D290121B7E95
:101950008003121BA1EF30E407D290121B7E80039C
:10196000121BA1EF30E307D290121B7E8003121BE3
:10197000A1EF30E207D290121B7E8003121BA1EF71
:1019800030E107D290121B7E8003121BA1EF30E0E2
:1019900005D290021B7E121BA122C0E0C083C08230
:1019A000C0D075D000C007309926E50AC39508500D
:1019B00013AF0A74502FF582E43400F583E0F599F3
:1019C000050A8008750A00750800C20AC2998029B4
:1019D000309826D20CAF0BD3EF944E748094804095
:1019E00005750B00D209AF0B74002FF582E43400AB
:1019F000F583E599F0050BC298D007D0D0D082D0FE
:101A000083D0E0327597A5E4F532F531F530F52F46
:101A1000E47FCCFEFDFCAB32AA31A930A82FC31263
:101A20000856501800E5322401F532E43531F5311D
:101A3000E43530F530E4352FF52F80D4A2AF920095
:101A4000C2AF7597DE7597ADA20092AF22C2D5E8FE
:101A500030E70FB2D5E4C39BFBE49AFAE499F9E4CA
:101A600098F8EC30E717B2D5121A831207B6E4C320
:101A70009BFBE49AFAE499F9E498F880031207B61C
:101A800030D50DE4C39FFFE49EFEE49DFDE49CFC85
:101A9000228F2F8B30AE05AF06121B0D8F31AF2F6B
:101AA000121B0D8F32AF30121B0DAD07E4FBFA1283
:101AB000191F0BBB00010AEB64094A70F2121BB23A
:101AC000E4FAFB12191F0BBB00010AEB64094A7010
:101AD000F2021BB2E4FFFEC20CE509C3950B400302
:101AE000300913AD09D3ED944E748094804005C243
:101AF00009E4F509D322200002C322308FFDC28FF2
:101B00000FBF00010EBE1CD1BFC0CEC322AC07E484
:101B10001202CEE4FBFA797F78431202277433F580
:101B20003AF539F5387537401214DAE4FBFA797F63
:101B3000784312011EE4FBFAF9783F12002D0203EC
:101B400002EFB40A07740D121B4C740A309811A8E6
:101B500099B8130CC2983098FDA899C298B811F69C
:101B60003099FDC299F59922E5C8540453C8FB7514
:101B7000CDFF75CCFE75CBFF75CAFF42C8220000B1
:101B800000000000000000000000000000C29022E1
:101B9000AF0974002FF582E43400F583E0FF0509F6
:101BA00022D2900000000000000000C2900000005F
:101BB00000227F107E27C290EF1FAC0670011E4CE2
:101BC00070F622758E3D7589204388402275E3406A
:101BD00075E1012275A50122E4F5A92275A89022DC
:101BE00043981022256C58000000000000000000FF
:021BF0000000F3
:00000001FF
