:020000040000FA
:100000000217E902034BE86480F8E933E833601132
:100010000460F0ED33EC337009E8FCE9FDEAFEEB37
:10002000FF220460DED3EB9FEA9EE99DE8C2E78CE5
:10003000F0C2F795F0400CE8CCF8E9CDF9EACEFA39
:10004000EBCFFB12031685D0F05804700320D5B314
:10005000E80470075002B2D502035592D5EC046053
:10006000F7E4CCC0E0C398F8603B94186008400DFA
:10007000D0E0FB02032DE4FBFAC9FC8028E830E461
:1000800006E4C9FBE4CAFCE830E305E4C9CACBFCDA
:10009000E854076010F8C3E913F9EA13FAEB13FB0D
:1000A000EC13FCD8F130F52FC3E49CFCEF9BFFEE82
:1000B0009AFEED99FDD0E0FBEF4E4D4C701222DB25
:1000C00003020352EC2CFCEF33FFEE33FEED33FD65
:1000D000ED30E7EB02032DEF2BFFEE3AFEED39FD9D
:1000E000D0E0FB50130BBB0003020355ED13FDEEF4
:1000F00013FEEF13FFEC13FC02032DEC4D6011E82F
:10010000497017ED33EC3304600DE4FCFFFEFD2273
:10011000E933E8330470F802034B12031658046005
:1001200009E4CC24815006285009020355284003D5
:10013000020352C0E0EB4A7044B98006D0E0FB02F3
:100140000341EF4E701CBD8008EBFFEAFEE9FD8025
:10015000EBE98DF0A4FEE5F00201E4E9CDF9EAFE59
:10016000EBFFEF89F0A4FCE5F0CE89F0A42EFFE4CC
:1001700035F0CD89F0A42DFEE435F08067EF4E70A8
:1001800005BD80D780C3EF8BF0A4ACF0EE8BF0A45C
:100190002CFCE435F0F8EF8AF0A42CE5F038FCE410
:1001A00033CB8DF0A42CFCE5F03BF8EE8AF0A42CC8
:1001B000FCE5F038F8E433CF89F0A42CFCE5F03806
:1001C000CF3400CE89F0A42FFFE5F03EFEE433C922
:1001D0008DF0A42EFEE5F039CD8AF0A42FFFE5F0D6
:1001E0003EFEE43DFD33D0E0FB50070BBB000F02A9
:1001F0000355EC2CFCEF33FFEE33FEED33FD020331
:100200002D020355EC5D046005E8590470030203F8
:100210004B120316580460F6EC4860F2EC7004FDD3
:10022000FEFF22C860DB2481C85009C398600250D9
:10023000060203529850CAF582E9294B4A7005AB71
:100240008202034175F0007C1A7880C3EF9BEE9A1E
:10025000ED99400DC3EF9BFFEE9AFEED99FDE8424C
:10026000F0DC23ACF0D0E0FFD0E0FED0E0FDAB82CC
:1002700020E7101BEB60BAEC2CFCEF33FFEE33FEF3
:10028000ED33FD02032DE803F830E705C0F075F00B
:1002900000EF2FFFEE33FEED33FD40B830E7C280B4
:1002A000AA75F020800E75F010800575F0087D00AD
:1002B0007E007F003392D530D503120757EC3340D0
:1002C00010EF33FFEE33FEED33FDEC33FCD5F0EDF4
:1002D00022E5F0247EA2D513CC92E7CDCEFF22ED0D
:1002E000D2E7CD33EC3392D524814006E4FFFEFD06
:1002F000FC22FCE4CFCECDCC24E0501174FF80ED85
:10030000C3CC13CCCD13CDCE13CECF13CF0470F00E
:1003100030D5DE020757E9D2E7C933E833F892D582
:10032000EDD2E7CD33EC33FC5002B2D522EC30E70E
:10033000100FBF000C0EBE00080DBD00040BEB60DB
:1003400014A2D5EB13FCED92E7FD2274FFFCFDFE39
:10035000FF22E480F8A2D574FF13FC7D80E480EFD7
:10036000ED33EC33601004700FED547F70057402B0
:1003700092E0227404220422E42274F8CC6480CC3B
:10038000C86480C8F58204604FC3EB9FF5F0EA9E15
:1003900042F0E99D42F0E89C45F0603C501DE5824A
:1003A0005FFFE582D313CB5BCBF42B5582FB502848
:1003B0000ABA002409B9002008801DE5825BFBE52C
:1003C00082D313CF5FCFF4C3132F5582FF50090E92
:1003D000BE00050DBD00010CC3EB9FF5F0EA9E4287
:1003E000F0E99D42F0E89C45F06007CC4820E70129
:1003F000B3EC22ED33EC33600A047003BD8004ECEF
:10040000B2E7FC22F920E72824F950037907E4F445
:100410002402FB18DBFDE624FB5014E9600DE4F632
:1004200018E604F6B40A08E4F6D9F57401F60A22CF
:10043000C2D522ED33EC3392D5FA602AB4FF33ED06
:10044000C2E77BFF60067A047958E4227A04796176
:1004500020D5047A04795C224E614E002B494E4629
:10046000002D494E4600E47A08F608DAFC7B007459
:100470000722E8C0E0ECC0E0EDC0E0EEC0E0EFC075
:10048000E0EA75F010A4CAABF075F04DA42BFBE4C4
:1004900035F0FCEA2410FAEB34C5FBEC34D9FCED62
:1004A000C2E7FF75F056A4F42411C5F0F434C58FEB
:1004B000F0A42AE5F03BE43CF620E714120566D0F0
:1004C000E0FFD0E0FED0E0FDD0E0FC12020480149A
:1004D000F404120566D0E0FFD0E0FED0E0FDD0E0ED
:1004E000FC1200FBD0E0F8E6FAEDD2E7CD33EC33B6
:1004F0002482FBE4C3CF33CFCE33CECD33CD33DB39
:10050000F37B0775F00A846004F6081B0AE5F0F631
:10051000088FF0740AA4FFACF08EF0740AA42CFECD
:10052000ACF050010C8DF0740AA42CFDE435F0F60B
:1005300008DBDE7407223F8000004120000042C833
:100540000000447A0000461C400047C35000497434
:1005500024004B1896804CBEBC205A0E1BCA675311
:10056000C21C749DC5AEFB60065407601C23231299
:100570000594EB5438600912058012058F1200FBB8
:10058000ECF8EDF9EEFAEFCB22EB12058F80F15487
:100590003803241C900536FE93FC0EEE93FD0EEE00
:1005A000930ECE93FF22C0E0EFFBEEFAEDF9ECF8EC
:1005B0001200FBD0E0F5F0EFFBEEFAEDF9ECF812EB
:1005C0000796A3A3A3A3E8C0E0E9C0E0EAC0E0EB7C
:1005D000C0E0C0F01200FB1207A6A3A3A3A3120061
:1005E0000AD0F0D0E0FBD0E0FAD0E0F9D0E0F8D5C6
:1005F000F0D422E709F608DFFA8046E709F208DFBF
:10060000FA803E88828C83E709F0A3DFFA8032E328
:1006100009F608DFFA8078E309F208DFFA807088CB
:10062000828C83E309F0A3DFFA806489828A83E005
:10063000A3F608DFFA805889828A83E0A3F208DFF4
:10064000FA804C80D280FA80C680D4806980F280A3
:1006500033801080A680EA809A80A880DA80E280C9
:10066000CA803389828A83ECFAE493A3C8C582C81E
:10067000CCC583CCF0A3C8C582C8CCC583CCDFE988
:10068000DEE7800D89828A83E493A3F608DFF9EC24
:10069000FAA9F0EDFB2289828A83ECFAE0A3C8C5AF
:1006A00082C8CCC583CCF0A3C8C582C8CCC583CCD6
:1006B000DFEADEE880DB89828A83E493A3F208DF45
:1006C000F980CC88F0EF60010E4E60C388F0ED2415
:1006D00002B4040050B9F582EB2402B4040050AF18
:1006E000232345822390064373BB010689828A83B4
:1006F000E0225002E722BBFE02E32289828A83E4E1
:100700009322BB010CE58229F582E5833AF583E06B
:10071000225006E92582F8E622BBFE06E92582F88A
:10072000E222E58229F582E5833AF583E49322BB50
:10073000010689828A83F0225002F722BBFE01F370
:1007400022C5F0F8A3E028F0C5F0F8E58215827024
:10075000021583E038F022C3E49FFFE49EFEE49D8F
:10076000FDE49CFC22EB9FF5F0EA9E42F0E99D42FD
:10077000F0E89C45F022BB010789828A8302088841
:100780005005E9F802087CBBFE05E9F802089489E7
:10079000828A83020796E493FC740193FD740293AA
:1007A000FE740393FF22E493F8740193F9740293A7
:1007B000FA740393FB22F5F0C582A4C582C5F0C587
:1007C00083A42583F58322FAE6FB0808E6F925F0E1
:1007D000F618E6CA3AF622BB010DE58229F582E554
:1007E000833AF5830208A95007E92582F80208A098
:1007F000BBFE07E92582F80208B2E58229F582E509
:10080000833AF5830208BBD083D082F8E493701258
:10081000740193700DA3A393F8740193F5828883F8
:10082000E4737402936860EFA3A3A380DFE88FF002
:10083000A4CC8BF0A42CFCE98EF0A42CFC8AF0ED67
:10084000A42CFCEA8EF0A4CDA8F08BF0A42DCC381B
:1008500025F0FDE98FF0A42CCD35F0FCEB8EF0A453
:10086000FEA9F0EB8FF0A4CFC5F02ECD39FEE43C0D
:10087000FCEAA42DCE35F0FDE43CFC22E6FC08E6C3
:10088000FD08E6FE08E6FF22E0FCA3E0FDA3E0FE93
:10089000A3E0FF22E2FC08E2FD08E2FE08E2FF22FC
:1008A000E6FB08E6FA08E6F922E0FBA3E0FAA3E09B
:1008B000F922E2FB08E2FA08E2F922E493FB740170
:1008C00093FA740293F922BB011A89828A83D0F0C9
:1008D000D0E0F8D0E0F9D0E0FAD0E0FBE8C0E0C02A
:1008E000F002091F5016E9F8D083D082D0E0F9D089
:1008F000E0FAD0E0FBC082C083020916BBFE16E915
:10090000F8D083D082D0E0F9D0E0FAD0E0FBC0820A
:10091000C08302092822EBF608EAF608E9F622EB82
:10092000F0A3EAF0A3E9F022EBF208EAF208E9F218
:1009300022E5442430F8E6054422782D3007027879
:1009400030E475F0011207C70206E92000EB7F2EA4
:10095000D2008018EF540F2490D43440D4FF3004D8
:100960000BEF24BFB41A0050032461FFE545600279
:1009700015450548E5487002054730070D782DE418
:1009800075F0011207C7EF02072F0217607403D238
:10099000078003E4C207F5448B2D8A2E892FE4F5E6
:1009A00045F547F548E54560077F2012096C80F55D
:1009B0007546FFC201C200C202C203C205C206C21E
:1009C0000812093AFF700D3007057F0012097DAF4C
:1009D00048AE4722B4255FC2D5C20412093AFF24AB
:1009E000D0B40A00501A75F00A784530D50508B61B
:1009F000FF0106C6A426F620D5047002D20380D9D2
:100A000024CFB41A00EF5004C2E5D204020C6AD21B
:100A10000180C6D20080C0D20280BCD2D580BAD2BA
:100A20000580B47F2012096C2002077401B54500CF
:100A300040F1120931FF12096C0209A5D208D20651
:100A40008095120931FB120931FA120931F94A4B2A
:100A5000700679617A0D7BFF20022EE545602A7EC3
:100A6000008E8275830012070260060EEE654670E6
:100A7000F0C2D5EBC0E0EAC0E0E9C0E0EE120CCA7B
:100A8000D0E0F9D0E0FAD0E0FB1206E9FF60AAEB73
:100A9000C0E0EAC0E0E9C0E012096CD0E02401F94E
:100AA000D0E03400FAD0E0FBE5460460DCD546D95E
:100AB0008087D20280A2120CAD60F7E54670010477
:100AC000120404A946600DE546600914F546120DAE
:100AD00054EF60F3EA30E702F404C3995077EAF484
:100AE00025460430E701E404F546800D120CAD60A4
:100AF000C1EA05462546120404EA7843F630E701C8
:100B0000E4254604D5460420050114120CCAE4C0AD
:100B1000E0120D547843E6601320E70714F612093B
:100B200054802204F6D0E014C0E07F00120954E59E
:100B300046600712094B1546800B30050312094B1E
:100B4000D0E00209A5D0E00480C5120CAD60A0E59C
:100B500046041204047843EAF6E5462005026001E3
:100B6000042404120CCA74FF04C0E0120D541209CC
:100B700054E546200502600312094BD0E0B546E873
:100B80007F4512095E7843E67F2B30E7047F2DF422
:100B900004C0E012096CD0E075F00A84C0F01209BC
:100BA00055D0E01209550209A5791080027908C2D2
:100BB00006C2088008D2D5790A8004790AC2D5E530
:100BC00046047002F546E4FAFDFEFF120931FC7B93
:100BD00008200113120931FD7B1030000A1209317F
:100BE000FE120931FF7B20EC3382D592D55013C31E
:100BF000E43000069FFFE49EFEE42001039DFDE437
:100C00009CFCE4CBF8C201EC700CCFCECDCCE82438
:100C1000F8F870F38017C3EF33FFEE33FEED33FDCA
:100C2000EC33FCEB33FB994002FB0FD8E9EB3001CE
:100C300005F8D0E0C448B201C0E00AEC4D4E4F7850
:100C4000207B0070C2EAB5460040BCC0E0120CCC6C
:100C5000D0F0D0E0200104C4C0E0C4B201C0F01262
:100C60000955D0F0D5F0EB0209A51208070A425346
:100C70000BA9580A134C0A0F420BAD4F0BB5440B8E
:100C8000B5490A28430BBB550AEC460B4A450AB640
:100C9000470D81500A172D0A1B2E0A3E2B0A1F23CF
:100CA0000A3C200D6A2A09D74800000A36E546B4F6
:100CB000FF03754606120931FC120931FD12093194
:100CC000FE120931FF783C020433790AA2D52003D1
:100CD00014300509B910020404B9080104A2D52092
:100CE00006025001042002689202B545005034C04B
:100CF000E07F203003197F30A20272067205500F88
:100D0000120D23C202C206C205C2087F30800F3016
:100D10000503E9C0E012096C300503D0E0F9D0E02A
:100D2000B545CC3005177F30B9100C12096C7F58CF
:100D30003004077F788003B9080312096C3002057C
:100D40007F2D02096C7F202008F87F2B2006F322DC
:100D5000920280CF7F00B407005005243CF8E6FFE4
:100D600022286E756C6C2900D2011209313001F80D
:100D7000C201784530D50108F60209D72D50434904
:100D8000581209312403B405004001E4900D7C930E
:100D900012095D743A12095DD203754504020BA96C
:100DA000E4F522F527F528F52BF52C7B01900003BF
:100DB00004F0A37400F0A37400F090003CEBF0A3E7
:100DC0007400F0A37424F0783F7C007D017BFF7AEF
:100DD00018792F7E007F011206C37B007A0079FC10
:100DE0001207768F268E258D248C23121787D2AF7B
:100DF00043E3407B647D647F641216A97530FF7500
:100E0000311875322B852636852535852434852382
:100E1000337B017A00792412098D90003CE0FBA31A
:100E2000E0FAA3E0F91206E9F529FF3395E0FEEFB9
:100E300064304E700375293190003DE475F0011265
:100E4000074190003CE0FBA3E0FAA3E0F91206E9B9
:100E5000F52A90003DE475F00112074175300075E8
:100E600031007532007533107B007A007929121138
:100E700067900003E0FBA3E0FAA3E0F9EF12072F6D
:100E8000900004E475F00112074190003CE0FBA3E0
:100E9000E0FAA3E0F91206E9F529FF3395E0FEEF49
:100EA00064304E700375293190003DE475F00112F5
:100EB000074190003CE0FBA3E0FAA3E0F91206E949
:100EC000F52A90003DE475F0011207417530007578
:100ED00031007532007533107B007A0079291211C8
:100EE00067900003E0FBA3E0FAA3E0F9EF12072FFD
:100EF000900004E475F00112074190003CE0FBA370
:100F0000E0FAA3E0F91206E9F529FF3395E0FEEFD8
:100F100064304E700375293190003DE475F0011284
:100F2000074190003CE0FBA3E0FAA3E0F91206E9D8
:100F3000F52A90003DE475F0011207417530007507
:100F400031007532007533107B007A007929121157
:100F500067900003E0FBA3E0FAA3E0F9EF12072F8C
:100F6000900004E475F00112074190003CE0FBA3FF
:100F7000E0FAA3E0F91206E9F529FF3395E0FEC394
:100F8000EF9431EE64809480500375293290003DD7
:100F9000E475F00112074190003CE0FBA3E0FAA3E6
:100FA000E0F91206E9F52A90003DE475F001120718
:100FB000417530007531007532007533107B007A51
:100FC000007929121167900003E0FBA3E0FAA3E087
:100FD000F9EF12072FD281D295D286121802743FF0
:100FE0002522F582E43400F583EFF0743F2522F5E5
:100FF00082E43400F583E0640A6003021162900029
:101000003FE06401704F900000E0FF900041E06F0E
:101010007043900001E0FF900042E06F7037900055
:1010200002E0FF900043E0B5072B900045E07527F4
:1010300000F528900006E4F0A3F0A37480F0A3E488
:10104000F0A3F0A304F07B00A314F0A3F0A374A01A
:10105000F00B1216F990003FE064027050A3E0FF1D
:101060007E0065287002E5276004EFF4703F900071
:1010700041E0752B00F52C30E004C2818002D28162
:10108000900041E0FF30E104C2958002D295EF303C
:10109000E204C2868002D286900006E4F0A3F0A3A8
:1010A0007480F0A3E4F0A3F074021216EC90003FF9
:1010B000E06403705DE52C452B7057E528452770EB
:1010C00051308106309503208648900006E4F0A355
:1010D000F0A37480F0900000E0F9900009E4F0A320
:1010E000F0A3E9F0900001E0F990000CE4F0A3F027
:1010F000A3E9F0900002E0F990000FE4F0A3F0A360
:10110000E9F0900003E0F9900012E4F0A3F0E91296
:1011100016EC90003FE06408701CA3E0FFF4600848
:10112000EFB52812E4B5270E900041E0FFA3E0FDE3
:10113000A3E0FB1216A990003FE06409701EE528A9
:1011400045277018FA900006CAF0A3EAF0A374804D
:10115000F0A3E4F0A3F0A374091216EDE4F5220263
:101160000FDB0522020FDB8B2D8A2E892FE4F53948
:10117000F538F537F536F534F535E5314532453096
:101180006012EBC0E0EAC0E0E9C0E0AB30AA31A9F0
:10119000321208C7AB2D052FE52FAA2E7002052E9F
:1011A00014F91206E9F53AC394094007E53AD394D5
:1011B0000D40E1E53A642060DBE53AB42D054335A6
:1011C000038016E53AB42B05433501800C74FF25E6
:1011D0002FF52F74FF352EF52EE533600464107063
:1011E0003FAB2DAA2EA92F1206E964306009E53322
:1011F000702E75330A8029900001120702FF64786F
:101200006004EFB458134335017533107402252F71
:10121000F52FE4352EF52E8007E53370037533087E
:10122000AB2D052FE52FAA2E7002052E14F91206FC
:10123000E9F53AC39461400AE53AD3947A500353EE
:101240003ADF74D0253AF53AC3940A400CE53A9453
:1012500011405374F9253AF53AE53AC395335046AF
:10126000433501AF337E00E4FCFDAB39AA38A93722
:10127000A83612082DC8ECC8C9EDC9CAEECACBEF12
:10128000CBE4FCFDFEEB253AF539EE3AF538ED39C5
:10129000F537EC38F536AF39AE38AD37FC33508022
:1012A000433504021220E53520E006E4FFFEFDFC94
:1012B00022E53145324530601EAB2DE52F24FFF984
:1012C000E52E34FFFAEBC0E0EAC0E0E9C0E0AB3065
:1012D000AA31A9321208C7E53530E21230E107E43D
:1012E000FFFEFD7C802274FFFFFEFD7C7F22E53542
:1012F000AF39AE38AD37AC3630E103020757223E86
:101300009248DA3ECCCCCD3F2AAAAB400000003F49
:101310008000003F9837F03FB504F33FD744FC3ED0
:101320003172173EB172173F0515913EDE5BD9D27F
:10133000008002C200EDD2E7F8CD33EC3304700B2D
:10134000BD800592D502035502034B40FBD31460C8
:10135000F2F5F07C3FEE7A00C39496C8948B40235C
:101360000AC89469C8941A401A0AC89468C8941F95
:1013700040110AC8945AC89425400805F07A00CD57
:10138000C2E7CDC0F08C3B8D3C8E3D8F3EEA2323DF
:10139000C0E0240FF582E43413F5831207A612008F
:1013A0000AECC0E0EDC0E0EEC0E0EFC0E01207964E
:1013B000A83BA93CAA3DAB3E120006D0E0FBD0E022
:1013C000FAD0E0F9D0E0B2E7F81202048C3B8D3C91
:1013D0008E3D8F3E9012FF74031205A6A83BA93CD8
:1013E000AA3DAB3E1200FBD0E0600F241BF582E467
:1013F0003413F5831207A612000A8C3B8D3C8E3DF8
:101400008F3ED0E0C3947FFDE49400FC1202A67BE3
:10141000187A727931783F1200FBA83BA93CAA3DAB
:10142000AB3E12000A30000B7BD97A5B79DE783E46
:101430001200FB228F348E338D328C31E4FFFE7D1F
:10144000807C3FAB34AA33A932A83112037A7009E9
:10145000AF34AE33AD32AC3122AF34AE33AD32AC9B
:1014600031120360FBAF38AE37AD36AC35120360D6
:10147000FFBF0108E4FFFE7D807C3F22EF64046033
:1014800022EB6404601DBB0127E4FFFEFDFCAB38CA
:10149000AA37A936A83512037A60084006E4FFFE91
:1014A000FDFC2274FFF538F537F536F535021542A7
:1014B000E4F539F53AFFFEFDFCAB34AA33A932A8B6
:1014C0003112037A504BAF38AE37AD36AC3512021D
:1014D000DF8E398F3AAC39AD3AEC1202A6C8ECC8AF
:1014E000C9EDC9CAEECACBEFCBAF38AE37AD36AC1B
:1014F00035120006E4FBFAF9F812037A70A5AF344E
:10150000AE33AD32AC311203F38F348E338D328C67
:1015100031AF34AE33AD32AC31121333AB38AA37FE
:10152000A936A8351200FB1215838F388E378D36F9
:101530008C35E53A30E00B1203F38F388E378D3659
:101540008C35AF38AE37AD36AC352233DA929E35B6
:10155000B16011377FE5FE392184893AAEC3FF3C83
:101560001D955B3D6358473E75FDF03F3172183F56
:10157000800000C2D502035502034BBD80FA50F330
:10158000020352ED33EC330460F17B3B7AAA79B865
:10159000783F1200FBED33EC3392D5247B5011A23F
:1015A000D570DB500BED448024045004A2D580CECE
:1015B000EFFBEEFAEDF9ECF81202DFEFF582F4043E
:1015C000FC1202AB12000AC08290154B740912057E
:1015D000B5ED33CC33D0F092D525F0A2D57001C350
:1015E00013CC13FD22AF2F1215F1AF301215F1AF4E
:1015F00005EF30E707D2901217B580031217C7EF37
:1016000030E607D2901217B580031217C7EF30E506
:1016100007D2901217B580031217C7EF30E407D234
:10162000901217B580031217C7EF30E307D290125C
:1016300017B580031217C7EF30E207D2901217B523
:1016400080031217C7EF30E107D2901217B580035D
:101650001217C7EF30E005D2900217B51217C72254
:101660007597A5E4F530F52FF52EF52DE47FCCFE2A
:10167000FDFCAB30AA2FA92EA82DC3120765501868
:1016800000E5302401F530E4352FF52FE4352EF553
:101690002EE4352DF52D80D4A2AF9200C2AF759700
:1016A000DE7597ADA20092AF228F2D8B2EAE05AFC7
:1016B0000612172C8F2FAF2D12172C8F30AF2E1232
:1016C000172CAD07E4FBFA1215E50BBB00010AEB82
:1016D00064094A70F21217D8E4FAFB1215E50BBB45
:1016E00000010AEB64094A70F20217D8A3F0A3E4E0
:1016F000F0A3F0A374A0F07B017A0079068B2D8A09
:101700002E892FE4FDFCAB2DAA2EA92F8D828C8370
:1017100074031207B61207D7AF0112181812180275
:101720000DBD00010CED640A4C70DB22AC07E41225
:1017300002ABE4FBFA797F78431202047433F53884
:10174000F537F536753540121434E4FBFA797F78B5
:10175000431200FBE4FBFAF9783F12000A0202DFB1
:10176000EFB40A07740D12176B740A309811A89918
:10177000B8130CC2983098FDA899C298B811F630E9
:1017800099FDC299F5992212166012180A121811C1
:1017900012181D1218211217A21217F8121825027A
:1017A0001829AF885388AF758D96EF5440FEEF54DB
:1017B000104E4288220000000000000000000000DF
:1017C00000000000C29022D2900000000000000043
:1017D00000C29000000000227F107E27C290EF1F01
:1017E000AC0670011E4C70F62212182A787FE4F6BF
:1017F000D8FD758148020DA0758E08758920438833
:1018000040223098FDC298AF992275A41075D44239
:101810002275A50175D520228F99C2992275E10103
:1018200022E4F5A922439810222222256C580000B8
:00000001FF
